:020000040800F2
:1000000000000220C10A0008450A0008490A000849
:100010004D0A0008510A0008550A000800000000B7
:10002000000000000000000000000000590A000865
:100030005D0A000800000000610A0008650A000867
:10004000110B0008110B0008110B0008110B000820
:10005000110B0008110B0008110B0008110B000810
:10006000110B0008110B0008110B0008690A0008A9
:10007000750A0008110B0008110B0008110B00088D
:10008000110B0008110B0008110B0008110B0008E0
:10009000110B0008810A0008110B0008110B000861
:1000A000110B00088D0A0008110B0008110B000845
:1000B000110B0008110B0008110B0008110B0008B0
:1000C000110B0008110B0008110B0008110B0008A0
:1000D000110B0008A10A0008110B0008110B000801
:1000E000110B0008110B0008110B0008110B000880
:1000F000110B0008110B0008110B0008110B000870
:10010000110B0008110B0008110B0008110B00085F
:10011000110B0008110B0008110B0008110B00084F
:10012000110B0008110B0008110B0008110B00083F
:10013000110B0008110B0008110B0008110B00082F
:10014000110B0008110B0008110B0008110B00081F
:10015000110B0008110B0008110B0008110B00080F
:10016000110B0008110B0008110B0008110B0008FF
:10017000110B0008110B0008110B0008110B0008EF
:10018000110B0008110B0008110B0008110B0008DF
:10019000110B000800000000110B0008110B0008F3
:1001A000110B0008110B0008110B0008110B0008BF
:1001B000110B0008110B0008110B0008110B0008AF
:1001C000110B0008110B0008110B0008110B00089F
:0801D000110B0008110B0008DF
:1001D80010B5054C237833B9044B13B10448AFF379
:1001E80000800123237010BD84010020000000005E
:1001F8004046000808B5034B1BB103490348AFF359
:10020800008008BD0000000088010020404600086A
:1002180053B94AB9002908BF00281CBF4FF0FF3165
:100228004FF0FF3000F06AB9ADF1080C6DE904CE6B
:1002380000F006F8DDF804E0DDE9022304B07047B9
:100248002DE9F047089D0C46002B4ED194468C456D
:100258008646B2FA82F262D94AB1C2F120039140CD
:1002680020FA03F30CFA02FC194300FA02FE4FEAE3
:100278001C471FFA8CF6B1FBF7F44FEA1E4307FB45
:10028800141143EA014304FB06F199420AD91CEB15
:10029800030304F1FF3080F01281994240F20F818C
:1002A800023C6344591A1FFA8EF3B1FBF7F007FBBF
:1002B800101143EA014300FB06F69E420AD91CEBE3
:1002C800030300F1FF3180F0FC809E4240F2F98088
:1002D800634402389B1B40EA044000211DB1D3400F
:1002E8000022C5E90032BDE8F0878B4205D90DB17F
:1002F800C5E9000100210846F5E7B3FA83F10029B2
:1003080046D1A34202D39042C0F0F080861A64EB33
:1003180003030120002DE6D0C5E90063E3E7002AC6
:1003280040F09080A1EB0C044FEA1C481FFA8CF7B0
:100338000121B4FBF8F64FEA1E4308FB164443EAD2
:10034800044307FB06F0984208D91CEB030306F1A7
:10035800FF3402D2984200F2CD8026461C1A1FFABA
:100368008EF3B4FBF8F008FB104443EA044300FBA7
:1003780007F79F4208D91CEB030300F1FF3402D2B0
:100388009F4200F2B0802046DB1B40EA0640A5E70A
:10039800C1F120068B4022FA06F71F4320FA06FC1B
:1003A80004FA01F343EA0C03F44000FA01F8380CAC
:1003B8004FEA1349B4FBF0FE1FFA87FC00FB1E440A
:1003C80049EA04440EFB0CF9A14502FA01F20AD9E4
:1003D8003C190EF1FF3A80F08480A14540F28180FB
:1003E800AEF1020E3C44A4EB09041FFA83F9B4FBF6
:1003F800F0F300FB134449EA044403FB0CFCA44556
:1004080007D93C1903F1FF3067D2A44565D9023BEF
:100418003C4443EA0E40A0FB0293A4EB0C049C422C
:10042800CE469C4651D34ED055B1B8EB0E0364EB83
:100438000C0404FA06F6CB401E43CC40C5E9006420
:10044800002150E7C2F1200320FA03F10CFA02FC64
:1004580024FA03F394400C434FEA1C4800FA02FEC6
:100468001FFA8CF7B3FBF8F008FB1031230C43EAB2
:10047800014300FB07F1994208D91CEB030300F183
:10048800FF362CD299422AD9023863445B1AA4B2A7
:10049800B3FBF8F108FB113344EA034401FB07F30B
:1004A800A34208D91CEB040401F1FF3613D2A3427E
:1004B80011D902396444E41A41EA004139E7044693
:1004C800F0E6084606E7C845AED2B9EB020E63EB84
:1004D800070C0138A8E73146EDE7034699E73046AF
:1004E800D4E7D6467FE7634402384DE706462346FD
:1004F80008460FE7023E634430E700BF704700BF7D
:1005080010B594B03822002106A804F05BF800204A
:10051800CDE90100CDE90300059001F0DDFE0120E1
:100528004FF4803102230324CDE90601552206A8A1
:10053800CDE90D34CDE90F42CDE91133139301F024
:1005480045FF08B172B6FEE7042103460F220DEB02
:100558000100CDE90124CDE90333059302F0B4F994
:1005680008B172B6FEE714B010BD00BF80B5002414
:10057800A0B000F051FFFFF7C3FFCDE91344CDE968
:100588001544944D1794EB6C934843F00403EB64C3
:10059800EB6C03F004030593059BEB6C43F020031D
:1005A800EB64EB6C03F020030693069BEB6C43F0C3
:1005B8000203EB64EB6C03F002030793079BEB6CFD
:1005C80043F00103EB64EB6C03F0010322464FF4A4
:1005D80000510893089B01F079FE22467F484FF4AA
:1005E800006101F073FE01267B4813A94FF4005700
:1005F800CDE91544CDE9137601F060FD4FF40063B1
:100608007648139313A90323CDE91464169301F0D4
:1006180055FDAB6C43F00403AB64AB6C03F004030F
:100628000393039BAB6C3343AB64AB6C6C4D3340AF
:100638002246214604930B20049B00F021FF0B2047
:1006480000F05AFF224621460C2000F019FF0C202A
:1006580000F052FF0823AB624FF40043C5E906449B
:10066800C5E90844EC60AB635E4C5F4BC5E90043E9
:100678004FF48053AB604FF4806E0C232846C5E9D5
:1006880004E303F04FFE08B172B6FEE701462846C0
:1006980003F0F0FE08B172B6FEE70146284603F003
:1006A8002BFF08B172B6FEE7284603F0C5FE0446E4
:1006B80008B172B6FEE7CDE90A00CDE90D00CDE933
:1006C8000F00CDE9110009900C900146342213A8BF
:1006D80003F078FF454DDFF820C1AC60A923C5E9D8
:1006E80000C36323EB6028468023C5E90444AB615B
:1006F80002F0A8FC08B172B6FEE7CDE909000B903C
:1007080009A9284602F060FF024608B172B6FEE762
:100718006023CDE90D00CDE90F00CDE911000CA94A
:1007280028460C9302F062FE034608B172B6FEE753
:100738004FF00072284613A9CDE91333CDE91533DC
:10074800CDE91737CDE91933CDE91B32CDE91D3392
:100758001F9302F093FF034608B172B6FEE7244CDC
:1007680024492382C4E90233C4E90D63A374E36313
:1007780002230522636120460B23E361C4E90012CA
:10078800C4E90966C4E90B662262A66101F08AF829
:10079800034608B172B6FEE7CDE91333CDE9153645
:1007A80040F2DF7240F2FF7313A92046CDE9172308
:1007B80001F0C6F908B172B6FEE70123022211461C
:1007C80000930B4801F0E8F900F0A0F900F0CEF929
:1007D800FCE700BF00100240000800480004004881
:1007E800600200200038014020A10700F402002028
:1007F8004003002000640040002C014072B6FEE770
:100808000B4B1A6E42F001021A661A6E82B002F0A1
:1008180001020092009A9A6D42F080529A659B6D8F
:1008280003F080530193019B02B001F0C7BD00BFE4
:10083800001002400000000010B504469CB00021E2
:10084800542207A8CDE90211CDE90411069103F05D
:10085800B9FE234B22689A4201D01CB010BD4FF458
:1008680080524FF0007307A80792159302F054F9CD
:1008780058BB1C4B9A6D42F000729A659A6D02F053
:1008880000720092009ADA6C9FED117B42F001022F
:10089800DA64DB6C8DED027B9FED0F7B03F00103C7
:1008A800019302A909234FF090408DED047B069334
:1008B800019A01F003FC00220321152000F0E0FD5D
:1008C800152000F019FE1CB010BDFFF797FFD0E708
:1008D80000180000020000000000000000000000F6
:1008E80000640040001002400E4B02689A4200D09B
:1008F800704703F5644300B5196E41F40061196649
:100908001B6E83B0002203F4006301931920114683
:10091800019B00F0B5FD192003B05DF804EB00F071
:10092800EBBD00BF002C014070B504469CB000210F
:10093800542207A8CDE90211CDE90411069103F06C
:1009480041FE374B22689A4201D01CB070BD01238A
:1009580007A8079302F0E0F8002858D1314B324835
:100968001A6E324E42F480421A661A6E02F48042BF
:100978000092009ADA6C42F00402DA64DB6C03F04D
:100988000403019330220223CDE902230022019BB4
:100998000323CDE9042302A90723069301F08EFB64
:1009A800234918220023C6E90012304680214FF45B
:1009B8004052C6E90233C6E90413C6E90633326277
:1009C80000F0C2FD48BB1B4D1B49C4F880601922CA
:1009D800C5E900128022002310212A6128464FF41D
:1009E8004052C5E90213C5E90533C5E90732B462C7
:1009F80000F0AAFD70B9002202212520E567AC624B
:100A080000F03EFD252000F077FD1CB070BDFFF71B
:100A1800F5FEA3E7FFF7F2FEEDE7FFF7EFFED2E7FB
:100A28000038014000100240000800480002002081
:100A380008000240A00100201C000240FEE700BFA1
:100A4800FEE700BFFEE700BFFEE700BFFEE700BF0E
:100A5800704700BF704700BF704700BF00F0ECBC94
:100A6800014800F0D1BE00BF00020020014800F09C
:100A7800CBBE00BFA0010020014801F05BBA00BF57
:100A88004003002008B5034802F086FBBDE8084093
:100A980000F048B8F4020020014802F037BF00BF58
:100AA80060020020034AD2F8883043F47003C2F889
:100AB8008830704700ED00E00D488546FFF7F2FFEB
:100AC8000C480D490D4A002302E0D458C4500433A1
:100AD800C4188C42F9D30A4A0A4C002301E0136077
:100AE8000432A242FBD303F075FDFFF73FFDFEE79A
:100AF800000002200000002084010020B846000801
:100B0800840100203C2B0020FEE7000008B50448C3
:100B180002F058FA00F028FCBDE8084000F044BA9A
:100B2800F40200200E480F49026808B50B6842F22B
:100B38000F7C01326345026007D801330B6000F077
:100B480053FABDE8084000F00DBC074B01221A70AB
:100B580000230B6000F048FABDE8084000F002BC32
:100B6800A8030020B8030020B403002038B5124CB5
:100B7800124B134922781868086000251D602AB9AD
:100B880000F008FCBDE8384000F05ABA0D4B0E489A
:100B98001A78013A18BF01224FF400511A7001F077
:100BA80095FB0A4A257013680133136000F0F2FBC5
:100BB800BDE8384000F044BAB4030020A803002080
:100BC800AC030020A403002000080048B003002064
:100BD8002DE9F043DFF808E19EF800200C46A2B1A9
:100BE800002874D0002C72D03B4904444FF6FF72A1
:100BF80010F8013B5340DBB2A04231F8133083EACE
:100C08001222F5D11046BDE8F08334494AF2010CAE
:100C18004DE04FF420534FF4F0484FF201094FF4E0
:100C2800A0474AF2010686EA550606F00106002E9C
:100C380018BF4F4687EA950718BF4346FE0744BFCB
:100C480083EA0C039BB283EAD506F707C3F34F0385
:100C580048BF83EA0C0383EA1516F6074FEA5303E5
:100C680044BF83EA0C039BB283EA5516F7074FEAA1
:100C7800530344BF83EA0C039BB283EA9516F60735
:100C88004FEA530344BF83EA0C039BB283EAD515AA
:100C9800ED074FEA530348BF83EA0C0302F1010250
:100CA80048BF9BB2B2F5807F21F8023F0AD012F00C
:100CB800010695B2ADD1334637464FF4A0484AF203
:100CC8000109B0E701238EF8003000288AD14FF6D9
:100CD800FF721046BDE8F083BC030020BA03002071
:100CE800BC05002038B50B4654001546014622467F
:100CF800184603F093FC7DB10146431C221891F875
:100D080001C013F8010C03F801CC0231914203F140
:100D1800020301F8010CF2D138BD00BF30B5CDB0E7
:100D2800144605464FF4967201A803F077FC62005A
:100D38007CB102F598710DEB010E01ABAEF5967E14
:100D4800197893F801C083F800C0597002337345CD
:100D5800F6D101A9284603F061FC4DB030BD00BFB3
:100D6800CB0710B512D4144B1B68B3F5FA6F0CD926
:100D7800124A1378062B1AD0092B06D10A241049D7
:100D8800104B147003C983E8030010BD0C4B0A4ACA
:100D98004021044600F09CFF58B90022012120465A
:100DA80001F038F80028DED0FFF728FDDBE707243C
:100DB800E5E7FFF723FDF0E7F00600204B070020EA
:100DC800E8060020E0060020F0B4484A82B05178D6
:100DD800002301931378412914BF033B023BDBB284
:100DE80003F1FF3314BF5168D2F80310032B7AD8EC
:100DF800DFE803F0635F1B0209BA01913C490B78F5
:100E0800072B20D00A2B51D13A483B4C037804EBEE
:100E1800C30CBCF80640002C57D0019AFF2A36D9DB
:100E2800364A019D22F8145031E00B0401F47F404A
:100E380003F47F03C1F3074103430B432C49019398
:100E48000B78072BDED12E4C2E4D237805EBC300F3
:100E5800C088002834D19278DDF804C00198274E64
:100E680002F5807702F50072000C26F817C026F804
:100E780012005A1CD2B21F482270172A037804D0D5
:100E880035F83220B2F5E06F01D20022227001332A
:100E9800DBB20522172B03700A7005D0164A32F808
:100EA8003330B3F5E06F01D20023037002B0F0BC19
:100EB800704749BA89B20191A0E7C9B201919DE78B
:100EC8000E4A019E22F81060D3E79278019F019C98
:100ED8000A4D02F5807602F50072240C25F816708A
:100EE80025F81240D3E70023019387E7E0060020A6
:100EF8004B070020DC0600200C000020380B0020E7
:100F0800DD060020C400002010B51F4B1F4C1978C7
:100F18001F4B34F83100186000220820C3E9012271
:100F2800C3E90422C3E90622D8601A62194B1A4899
:100F38001B784FF0FF32052BC0E9002204D0082BA4
:100F480019D1164A164C117804EBC102C90052880F
:100F580042700431625AFF2A0ED802220270635A84
:100F680083700D4A0A490F4800F050FE18B1BDE8D9
:100F78001040FFF743BC10BD03220270625A120AE8
:100F88008270635AC370ECE7DD060020C4000020BD
:100F9800200700204B07002018070020DC0600204F
:100FA8000C0000204003002008B50C4B0C48002121
:100FB800FF22197003F006FB0A4800F00FFE30B953
:100FC80008480022012100F025FF18B908BDFFF7E5
:100FD80015FCF5E7BDE80840FFF710BC4A070020FC
:100FE800C005002040030020104911480B880278F2
:100FF80001330B80092A0BD8DFE802F00F0A050A33
:101008000A0A050A0A050B4A136813B1013B136063
:101018007047094B01221A707047084A138813B1A8
:10102800013B138070470423037070474807002072
:101038004B07002004000020BD0500200800002008
:1010480038B5764C2378013B092B11D8DFE803F03B
:10105800A115892863681105C211714B7149188857
:10106800A1F8020600221A80FFF74EFF0923237019
:1010780038BDBDE83840FFF7A7BE6B4B1A787AB188
:101088006A4A6B49002018704FF47A730B60137822
:101098002033DBB2602B89BF9623137010700B606E
:1010A800644B654803F1B8014FF0010C05E0FF2AD5
:1010B80098BF00F802C08B4203D09A880833002AF0
:1010C800F5D15E4B4FF0010C03F1B80105E0FF2AA2
:1010D80098BF00F802C0994203D09A880833002AC2
:1010E800F5D1554B002103E00131FF2900F0938031
:1010F80013F8012B002AF7D05148524B524A01707D
:1011080003F5807013F8011F22F8021F8342F9D1FA
:101118000523237038BDFFF7F7FE0623237038BD7B
:10112800414A1378002BA3D04849424D0B784048D8
:101138000133DBB24FF0000E82F800E035F83320BF
:101148000B7096250560052020700AB1172B03D96E
:10115800002208230A7023703D4A13880133138044
:1011680038BD32493B4A0B7852683B484FEA531C1A
:10117800203312BADBB240F82C20602B4FF001026A
:101188000B7022707FF674AF002204230A7023705C
:1011980038BD32493248002340F2DF72C1E90133D9
:1011A800C1E90433C1E906330A600B6208224FF42F
:1011B800817320F8033CCA601C4B4FF0FF32026079
:1011C8000271C21E1B782748937000F01FFD02238E
:1011D800237038BD144B1A78002A3FF449AF224ACD
:1011E80013490020187013780133DBB29620086089
:1011F800172B4FF005012170137005D00F4931F8F6
:101208003330B3F5E06F01D200231370174A138807
:101218000133138038BD0B23237038BD4B070020E2
:1012280048070020380B0020BD0500204A07002091
:1012380004000020C4000020C00500200C0000208D
:10124800BE050020BF050020360B0020DD0600206B
:1012580046070020E8060020C006002020070020DE
:101268001B07002040030020DC0600204407002064
:101278002DE9F043DFF8D480314CB8F8042098F811
:101288000130B8F80200637052BA92B25700BDB28A
:10129800E91C40BA1FFA81F9062B4FF06901CDB05D
:1012A80086B221703AD026D8033B012B10D82548A6
:1012B8005FFA82F800EB4600424601A9FFF712FDEB
:1012C8004FEA4802A27001A93A46E01C03F0A6F9C9
:1012D800494605354F464E1CADB21948FFF778FC14
:1012E800E055000AA055164917482A4602F026FA82
:1012F8004DB0BDE8F083102BEAD1124808F1070180
:1013080000EB4600D2B2FFF709FD0627D8F80230F5
:10131800C4F80230082507263946DEE798E80300B6
:1013280020600848A18000EB460008F10401012272
:101338000627FFF7F3FC082507263946CDE700BF47
:1013480050070020380B00206002002044090020CC
:101358000248034B018001221A7070474E07002093
:101368004C070020704700BF08B54FF40052002119
:10137800054803F027F9BDE80840044904484FF43C
:10138800967203F0FBB800BF380B00204409002018
:101398006002002008B50A4B1A782AB1094A127867
:1013A8000021692A197007D0BDE808400549064898
:1013B8004FF4967203F0E2B8FFF75AFFF4E700BF64
:1013C8004C070020440900206002002038B50F4B6C
:1013D8001B680BB9012038BD0D494FF47A720546D8
:1013E800B2FBF3F30868B0FBF3F000F093F804469F
:1013F8000028EFD10F2DEDD8024629464FF0FF30D7
:1014080000F03EF8034B20461D6038BD7C010020EB
:10141800000000208001002010B5032000F01EF815
:101428000F20FFF7D3FF10B10124204610BD04465A
:10143800FFF7E6F9204610BD034A04491368096816
:101448000B441360704700BF382B00207C0100203C
:10145800014B1868704700BF382B00200749CA683D
:1014680003024FF6FF0003F4E0630240134343F026
:10147800BF6343F40033CB60704700BF00ED00E06A
:101488001B4BDB68C3F3022300B5C3F1070EBEF1A3
:10149800040F03F1040C28BF4FF0040EBCF1060F33
:1014A8001CD9A3F1030C4FF0FF3303FA0CF322EA23
:1014B80003024FF0FF3303FA0EF321EA030303FAA2
:1014C8000CF313431B010028DBB20ADB00F1604078
:1014D80000F5614080F800335DF804FB0022944673
:1014E800E7E7044A00F00F00024413765DF804FBB6
:1014F80000ED00E0FCEC00E0002807DB044A4109AD
:10150800012300F01F00834042F82130704700BFDC
:1015180000E100E00138B0F1807F01D3012070477D
:1015280010B44FF0E023074C58614FF0F00C84F8EA
:1015380023C00022072110469A615DF8044B196107
:10154800704700BF00ED00E0002876D0F0B43C4AB8
:101558000468944203465CD93A493B4A3B482144D3
:10156800A2FB01210909890002229D6883F8252030
:10157800DA68354E364FC3E9100118692A43024329
:101588005869024398690243206820F4FF4CD869DF
:101598000243E0B20838A6FB00601E6A2CF0700C0B
:1015A800324342EA0C022260254E2A4AC0F3041054
:1015B800B44298BF3A4606F27946012404FA00F08C
:1015C800DE64B5F5804F01EB020618659E644FEAAC
:1015D800910127D05E68F5B2013E032E42F82150F2
:1015E800C7F8840024D81C4A1C482A449200013DAC
:1015F800AC400021C3E91520DC651160184A546429
:1016080000200122D86383F8240083F82520F0BC49
:10161800704714490C4A14482144A2FB01210909C6
:101628008900A1E700245C6042F82140C7F88400E3
:101638000022C3E91522DA65E2E70120704700BFFE
:1016480007040240F8FBFDBFCDCCCCCC000402401F
:1016580000080240200802403F8200104009024072
:1016680000090240F8FFFDBF00000240F0B490F806
:101678002440012C09D0012480F8244090F825400A
:10168800012C05D0002380F824300220F0BC7047DC
:10169800022480F825400024C4630468C66C2568C9
:1016A80025F001052560D0E91475776015B1D0E9FA
:1016B80016677760466C076C06F01F0C012606FA61
:1016C8000CF67E6063608368102B036B0BBFA2600F
:1016D800A160E160E260BBB1236843F00E032360C0
:1016E800836C1A68D20303D51A6842F480721A60B0
:1016F8001DB12B6843F480732B60236843F001030A
:1017080000202360F0BC7047236823F004032360A3
:10171800236843F00A032360E2E700BF90F825201E
:10172800022A034609D00422C263012100220120B3
:1017380083F8251083F8242070470268596C30B468
:10174800846C10681D6C20F00E001060206820F476
:1017580080702060106820F00100106001F01F0107
:1017680001228A40D3E91441D86C6A60446031B1DF
:101778000A68D3E9160422F480720A6044600121E1
:10178800002283F8251083F82420002030BC7047FD
:1017980038B590F82530022B09D001230421002206
:1017A800C16380F8242080F82530184638BD0368C6
:1017B800846C1968426C056C21F00E011960196877
:1017C80021F0010119602368C16C23F48073236040
:1017D80002F01F0201239340D0E914426B604C6071
:1017E80032B11368D0E9161423F4807313604C6087
:1017F800836B0121002280F8251080F8242003B192
:101808009847002038BD00BF70B4436C066C05686B
:1018180031682C6803F01F0304229A400A420ED054
:1018280014F0040F0BD02B689B0603D42B6823F00D
:1018380004032B60036B7260CBB170BC18470222A3
:101848009A400A4215D014F0020F12D02B6899065C
:1018580006D42B6823F00A032B60012380F8253077
:10186800C36A7260002180F82410002BE5D170BC97
:10187800704708229A400A42F9D02207F7D52A6809
:10188800416B22F00E022A60012202FA03F30024BF
:101898007360C26380F8244080F825200029E6D0D0
:1018A80070BC0847002800F01C812DE9F04190F831
:1018B8005C30044603F0FF02002B73D02268936962
:1018C80023F010039361FFF7C3FD054604E0FFF71B
:1018D800BFFD401B0A285BD823689A691207F6D413
:1018E8009A6942F001029A61FFF7B2FD054604E0E9
:1018F800FFF7AEFD401B0A284AD821688B69DB0731
:10190800F6D58B697F4A43F0020391428B6100F060
:10191800D580237C012B8B690CBF23F0400343F057
:1019280040038B61637C012B8B690CBF43F48043BC
:1019380023F480438B61A37C012B8B690CBF23F4B8
:10194800805343F480538B618B69A068E26823F469
:10195800407303438B618B6923F0A4038B610B698C
:10196800012A23F010030B6121D022B3022A8B69CC
:1019780000F0C48043F080038B610B69032A43F0B5
:1019880010030B6117D18B6943F020038B6112E0C0
:10199800236E032243F00103236684F85C200120B0
:1019A800BDE8F08180F85D20FEF746FF86E78B6989
:1019B80043F004038B61D4E90623013B013A1B027F
:1019C80043EA4263226A013A13436269013A43EAED
:1019D8000243B0F5407FCB610ED1D4E90B03A26A74
:1019E800013B01381B01013A43EA00231343626AB1
:1019F800013A43EA0243CB60D1F8C030E06B424A77
:101A080003439142C1F8C0306DD04048404B414E2D
:101A1800414D424F814202F57D5202F1100208BF4A
:101A28001A46A3F1D80308BF984600F56250A3F1FF
:101A3800180300F1300008BF1E46A3F1D8030CBFFD
:101A48001F468446A3F1D803A0F140000CBF9C4672
:101A58008646A3F1400300F5C6600CBF9E46A84623
:101A6800A3F5E26308BF0346D1F88000656B2364E1
:101A780020F4F81040EA0540C1F88000D1F8800051
:101A8800A56BC4F844E020F0706040EA0560C1F836
:101A98008000591C9142C4E912C72665C4F85480D5
:101AA80011D9002143F8041B9342FBD300200123E2
:101AB800206684F85C30A065BDE8F081184B626848
:101AC800C3F8002525E7013AD21A920801325208D4
:101AD80003EBC20200200021E3E802019A42FBD195
:101AE800E4E7012070470F4ADFF848800E4E0F4F99
:101AF800DFF844C0DFF844E00D4BB5E743F02003BE
:101B08008B6158E70064004000680040006C0040AA
:101B1800F0AD004060A6004078A6004088A50040CF
:101B280000600040A0AA0040B0A90040D8A800402A
:101B380050A70040C8A9004000A80040C0A7004026
:101B480090F85C20013A012A034605D9026E42F05A
:101B5800020201201A66704770B4D1E902250E68A6
:101B680008694C694968920756B942EAC562224336
:101B78001B6C42EA004270BC002043F821207047E9
:101B88005B6C40EA457043F8310003EBC103224324
:101B9800002070BC5A607047844690F85C000128A9
:101BA80007D0DCF8603043F004030120CCF8603043
:101BB800704710B40198DCF8004040EA4303D4F8B9
:101BC800800043EA820242EA011120F03F030B43FE
:101BD800C4F8803000205DF8044B704790F85C2012
:101BE800012A034605D0026E42F0040201201A665B
:101BF80070470068022283F85C208269002122F085
:101C08000102826108461966704700BFF0B590F876
:101C18005C30022B86460BD10568D5F8C43013F426
:101C2800001C0BD0036E43F4007303660120F0BD63
:101C3800036E43F0080303660120F0BDD5F8C460C5
:101C48004B680F6988680C68C6F30146002B37D1CA
:101C5800074347EA8447D1E9060303434869CC6848
:101C68000343086A43EA006343EA0443DEF8540086
:101C780006EBC60440F8347000EBC400134C436014
:101C8800CB68E35CA3B19378D7781B0443EA076376
:101C980017783B43577843EA072300EB0C070CF10E
:101CA800040CBB60CB68E35C9C4502F10402EAD3F8
:101CB8000123B340C5F8CC300020CEF85830F0BD31
:101CC8002743074347F08047C5E700BF7046000831
:101CD8002DE9F04190F85C40022C0DD140290568AF
:101CE80010D0D5F8984027076FD1036E43F480735E
:101CF80003660120BDE8F081036E43F00803036624
:101D08000120F7E7D5F890402707EED0D5F8906086
:101D1800C6F30064F60148BFD5F88040D5F8907046
:101D280048BFC4F34024C7F3012707EB0408846CB9
:101D380008EBC80604EBC604266806F08046566021
:101D4800002E5ED12668C6F38A461660266806F01D
:101D580000569660266806F000461661A688D66189
:101D6800B4F806C00CF00F0CC2F80CC0666806F494
:101D780080165661666806F400169661E67906F0E4
:101D88007F061662224E676816F80CE04FEAD77C89
:101D9800C2F824C0BEF1000F10D0013B04F1070EB9
:101DA800F4461EF8015F03F8015FD568ACF1060C34
:101DB800755DACEB040C6545F2D80568402924D064
:101DC800C5F89C800020BDE8F081D5F89860C6F37E
:101DD8000064F60148BFD5F88040D5F8987048BF30
:101DE800C4F30024C7F3012707EB0408C46C08EB0D
:101DF800C80604EBC604266806F080465660002E26
:101E0800A0D0266826F060469FE7C5F89480D9E7F9
:101E180070460008034690F85C000138012805D98F
:101E28001A6E42F0020201201A6670471B6870B4ED
:101E380011F00705986D01F0380409D0C60707D4DA
:101E4800DD6D45F00105DD6554B184072FD407E049
:101E580004B386071ED4DE6D46F00106DE6525BB99
:101E680011F4E07F01D0460721D411F4F05F01D0CE
:101E780005071CD411F4604F01D0C40617D411F41F
:101E8800403F01D0860612D411F47C0F13D04506CA
:101E98000DD410E011F4E07F21D046071FD4DE6D89
:101EA80046F00106DE65002DCED0C507CCD5D86D2D
:101EB80040F00200D8650C0604D5D3F8DC001043C6
:101EC800C3F8DC00C80504D5D3F8E0000243C3F822
:101ED800E0205A6D0A43002070BC5A65704711F41F
:101EE800F05F01D00607DAD511F4604F01D0C606BD
:101EF800D5D511F4403F01D08606D0D511F47C0F1A
:101F0800D1D04606CBD5002D9ED0CEE7704700BF76
:101F1800704700BF704700BF704700BF704700BFE1
:101F2800704700BF704700BF704700BF704700BFD1
:101F3800704700BF2DE9F84F03681A6D596D02EA22
:101F4800010A1A6D596D02EA01091A6D596D1E6D63
:101F580002EA01085A6D1F6D16405A6DD3F854B045
:101F68001D6D1740690604460AF4E05A09F007098E
:101F780008F0380806F4710607F4602702D51BF04C
:101F8800400F72D1EA0502D51BF4807F5DD1BAF10A
:101F9800000F4AD1B9F1000F35D1B8F1000F3CD18B
:101FA800AB0502D51BF4007F74D1280602D51BF0BF
:101FB800800F77D1A90402D51BF4005F5AD12A04F7
:101FC80002D51BF4004F5DD16B040AD51BF4804F7A
:101FD80007D023684FF480421A65236E43F08003CC
:101FE80023664FB926B123681E65236E33432366E3
:101FF800236E2BBBBDE8F88F236839461F65204642
:10200800FFF796FFEEE723684946C3F8509020464D
:10201800FEF7A6FEB8F1000FC2D023684146C3F808
:1020280050802046FFF774FFBAE723685146C3F88B
:1020380050A02046FFF76AFFB9F1000FADD0E2E7E4
:102048002046FFF773FFBDE8F88F2368D3F8D81050
:10205800D3F8E0204FF48070186511402046FFF750
:102068005DFFBAF1000F95D0DFE740221A65FFF750
:102078005BFF87E723684FF400521A652046FFF795
:102088004FFF9CE723684FF400421A652046FFF78C
:1020980049FF99E723684FF400721A652046FFF755
:1020A80039FF82E72368D3F8D410D3F8DC208020E6
:1020B800186511402046FFF72FFF7BE72DE9F04F09
:1020C8000C6885B0002C00F0898000234FF0010BCC
:1020D8000BFA03FE1EEA040A7BD04D6805F00302E2
:1020E8004FEA430C032602F1FF3806FA0CF7B8F161
:1020F800010F6FEA070774D9032A40F0B08002FA8B
:102108000CF2D0F800C00CEA07073A4315F4403F38
:1021180002605ED0664F3A6E42F001023A663A6E4D
:1021280002F001020392039A23F0030202F18042B3
:1021380002F5803203F0030C97684FEA8C0C0F26E7
:1021480006FA0CFEB0F1904F27EA0E071DD0594E43
:10215800B04200F09780584EB04200F09A80DFF805
:1021680060E1704500F08780DFF858E1704500F0C5
:102178009780DFF854E170450CBF4FF0050E4FF023
:10218800060E0EFA0CFC47EA0C0797604B4A926859
:10219800EE026FEA0A07494E54BF3A404AEA020281
:1021A800B260F268AE02454E54BF3A404AEA0202B3
:1021B800F2607268AE03414E54BF3A404AEA0202E6
:1021C80072603268ED033D4D54BF3A404AEA02025C
:1021D8002A60013334FA03F27FF47AAF05B0BDE820
:1021E800F08FD0F80890CE6809EA070906FA0CF8CB
:1021F80048EA0908C0F80880D0F804808E6828EA00
:102208000E08C5F3001E0EFA03FE4EEA080EC0F8CB
:1022180004E0D0F80C8006FA0CFE08EA07084EEA3B
:10222800080E022AC0F80CE07FF469AF0E694FEA85
:10223800D30803F0070E00EB88084FEA8E0E06FA63
:102248000EF6D8F8209001960F2606FA0EFE019E8B
:1022580029EA0E0946EA090EC8F820E04FE7D0F847
:102268000C808E6808EA070806FA0CFE4EEA080E8B
:10227800C0F80CE043E74FF0030E0EFA0CFC47EAF7
:102288000C0782E74FF0010E0EFA0CFC47EA0C0728
:102298007BE74FF0020E0EFA0CFC47EA0C0774E7D6
:1022A8004FF0040E0EFA0CFC47EA0C076DE700BF6E
:1022B80000100240000400480008004800040140E3
:1022C800000C004800100048001400480AB1816161
:1022D80070478162704700BF354A136860B903F4DC
:1022E800C063B3F5806FD2F880301BD023F48073BD
:1022F800C2F8803000207047B0F5007F06D023F484
:10230800C06343F4806313600020704703F4C06324
:10231800B3F5806FD2F8803029D043F48073C2F8C7
:102328008030F1E723F48073C2F8803013682148C5
:10233800214923F4C06343F4007313600368322017
:1023480000FB03F35069A1FB03139B0C400503F149
:10235800010306D500E023B15169490503F1FF33B4
:10236800F9D4134B5B695B05CED50320704743F462
:102378008073C2F8803013680E480F4923F4C06395
:1023880043F4007313600368322000FB03F35069C1
:10239800A1FB03139B0C400503F10103E1D501E008
:1023A800002BDED05169490503F1FF33D9D5F7E792
:1023B800007000400000002083DE1B43024A93683F
:1023C80043F480439360704700700040002800F099
:1023D800BD812DE9F0410368D90782B0044612D5C2
:1023E800A6498A68C96802F00C020C2A00F0D0805D
:1023F800082A40F0D280A14A1268920303D5626885
:10240800002A00F037819A0722D59C4A9368D2683F
:1024180003F00C030C2B00F0F880042B40F0FA803A
:10242800964B1B685B0503D5E368002B00F02281FF
:10243800924A20695368924923F0FE4343EA0063B5
:1024480053600868FEF7C2FF002840F01381236834
:102458001A0719D56369894D002B00F0C280D5F899
:10246800943043F00103C5F89430FEF7F1FF0646B7
:1024780005E0FEF7EDFF801B022800F21781D5F872
:1024880094309B07F5D523685D0741D57B4B9A6D42
:10249800D00000F10F819A6D42F080529A659B6DD1
:1024A80003F080530193019B0125764E3368D905CB
:1024B80040F12E81A368012B00F0FE80052B00F06F
:1024C80084816E4ED6F8902022F00102C6F8902042
:1024D800D6F8902022F00402C6F89020002B40F095
:1024E800F280FEF7B5FF41F28838074605E0FEF7AF
:1024F800AFFFC01B404500F2D980D6F8903099074D
:10250800F5D425B15D4A936D23F080539365236814
:102518009A0618D5A369594D002B00F0E580D5F827
:10252800983043F00103C5F89830FEF791FF06464E
:1025380005E0FEF78DFF801B022800F2B780D5F872
:1025480098309B07F5D5E369F3B14C4DAA6802F0C2
:102558000C020C2A00F04781022B2B6823F08073B1
:102568002B6000F0F580FEF773FF044605E0FEF7E8
:102578006FFF001B022800F299802B689B01F6D49C
:10258800EA68414B1340EB60002002B0BDE8F081DF
:1025980001F0030103293FF42EAF6368B3F5803FD0
:1025A80055D0B3F5A02F00F0C480344D2A6822F42A
:1025B80080322A602A6822F480222A60002B4BD1BC
:1025C800FEF746FF064604E0FEF742FF801B64283C
:1025D8006CD82B689903F7D423689A077FF538AF2E
:1025E80013E7D5F8943023F00103C5F89430FEF7CB
:1025F8002FFF064604E0FEF72BFF801B022855D864
:10260800D5F894309F07F6D43DE702F00302022A7A
:102618003FF406AFE368194D002B37D02B6843F41D
:1026280080732B60FEF714FF064604E0FEF710FFE8
:10263800801B02283AD82B685F05F7D56B6822699A
:1026480023F0FE4343EA02636B60236800E70B4A0A
:10265800136843F480331360FEF7FAFE074E05460D
:1026680004E0FEF7F5FE401B64281FD833689F037B
:10267800F7D5B1E7012002B0BDE8F08100100240B3
:102688008001002000700040FCFFEEFE2B6823F460
:1026980080732B60FEF7DCFE06462B6859057FF534
:1026A800D6AEFEF7D5FE801B0228F6D9032002B06D
:1026B800BDE8F0810025F8E6654AD2F8903043F08D
:1026C8000103C2F89030FEF7C3FE614F064641F29F
:1026D800883804E0FEF7BCFE801B4045E6D8D7F8F2
:1026E80090309B07F6D50CE7D5F8983023F0010316
:1026F800C5F89830FEF7ACFE064604E0FEF7A8FEE3
:10270800801B0228D2D8D5F898309F07F6D41AE74C
:10271800336843F480733360FEF79AFE07463368E4
:10272800DA053FF5C7AEFEF793FEC01B0228F6D9BF
:10273800BCE703F18043A3F53C331A6842F48022D6
:102748001A601A6842F480321A6085E701207047DF
:10275800FEF77EFE064604E0FEF77AFE801B02289E
:10276800A4D82B689901F7D4E9683A4B226A606AC1
:10277800374E0B401343D4E90A1243EA012343EAD4
:10278800C263D4E90C120138490843EA001301393D
:10279800520843EA4153013A43EA4263EB602B682B
:1027A80043F080732B60EB6843F08073EB60FEF7B7
:1027B8004FFE044605E0FEF74BFE001B02283FF6DD
:1027C80075AF33689A01F6D5DEE6214BD3F8902031
:1027D80042F00402C3F89020D3F8902042F001029E
:1027E800C3F890206FE7012B3FF444AFEB68226AEF
:1027F80003F0030191427FF43DAF616A03F0F002F8
:102808000139B2EB011F7FF435AFA16A03F4FE4230
:10281800B2EB012F7FF42EAFE16A03F07842B2EBFE
:10282800C16F7FF427AF226B520803F4C001013A4D
:10283800B1EB425F7FF41EAF626B520803F0C063D6
:10284800013AB3EB426F14BF012000209DE600BFA0
:10285800001002400C809F01184B9A6802F00C028D
:10286800042A26D09A6802F00C02082A23D09A6813
:1028780002F00C020C2A01D000207047D968DA68EF
:10288800D86801F003010329C2F30312C0F306203C
:102898000CBF0B4B0B4B0132B3FBF2F303FB00F005
:1028A800064BDB68C3F3416301335B00B0FBF3F015
:1028B8007047044870470248704700BF0010024044
:1028C800001BB7000024F400002800F0EE80784ACE
:1028D8002DE9F843136803F00F038B420D460446B5
:1028E8000CD2136823F00F030B431360136803F033
:1028F8000F038B4202D00120BDE8F8832368DF076D
:1029080069D56768032F00F0A0806A4B022F1B6807
:1029180000F097805B05EED5FFF79EFF664B984267
:1029280040F2C080634A936823F0F00343F08003C9
:1029380093604FF080095F4EB36823F003033B4375
:10294800B360FEF785FD41F28838074604E0FEF7DC
:102958007FFDC01B404571D8B368626803F00C0363
:10296800B3EB820FF3D123689F0736D4B9F1000F78
:1029780003D0B36823F0F003B3604D4E336803F01F
:102988000F03AB4246D823685A0706D54949E06881
:102998008A6822F4E06202438A601B0707D5454A29
:1029A8002169936823F4605343EAC1039360FFF7F6
:1029B80053FF404A414C92684149C2F3031203460F
:1029C800A25C404802F01F02D3400B600068BDE8DB
:1029D800F843FEF7FBBC9E07CFD5580704D5354909
:1029E8008A6842F4E0628A60190706D5314A93681A
:1029F80023F47C5343F4E06393602E4AA168936800
:102A08002B4E23F0F0030B439360336803F00F035E
:102A1800AB42B8D9336823F00F032B433360FEF77A
:102A280017FD41F288380746336803F00F03AB42BD
:102A3800A9D0FEF70DFDC01B4045F5D90320BDE820
:102A4800F8839A033FF568AF55E71A4A1168880179
:102A58007FF551AFD068D168D268174E00F00300F7
:102A68000328C1F303110CBF174818480131B0FB04
:102A7800F1F11048C2F3062201FB02F2C168C1F36A
:102A8800416101314900B2FBF1F2B2420AD98268D0
:102A980012F0F00F3FF446AF990703D5A368002B57
:102AA8003FF440AF4FF0000945E70120704700BFF1
:102AB800002002400010024000B4C4046046000830
:102AC8000000002080010020001BB7000024F40053
:102AD800054B064A9B680649C3F302230868D35C82
:102AE80003F01F03D8407047001002405846000802
:102AF80000000020054B064A9B680649C3F3C22321
:102B08000868D35C03F01F03D840704700100240E8
:102B180058460008000000202DE9F04103680446EB
:102B280013F4002082B052D0AC4B9A6DD50040F11E
:102B38003A810027AA4D2B6843F480732B60FEF777
:102B480087FC064605E0FEF783FC831B022B00F298
:102B580035812B68D805F6D5A04D226DD5F8903073
:102B680013F4407326D0934224D0D5F89010D5F8AA
:102B7800903043F48033C5F89030D5F8903023F482
:102B88008033C5F8903021F44073C907C5F89030F8
:102B980010D5FEF75DFC41F28838064605E0FEF7E1
:102BA80057FC801B404500F20981D5F890309B07FF
:102BB800F5D5226D8949D1F8903023F44073134339
:102BC800C1F8903023680020002F40F0FC80DD071A
:102BD80008D582496568D1F8882022F003022A4383
:102BE800C1F88820990708D57C49A568D1F88820BC
:102BF80022F00C022A43C1F888205A0708D57749E1
:102C0800E568D1F8882022F030022A43C1F88820EC
:102C18001F0708D571492569D1F8882022F0C0021C
:102C28002A43C1F88820DE0608D56C496569D1F8C1
:102C3800882022F440722A43C1F888209D0608D5CE
:102C48006649A569D1F8882022F440622A43C1F870
:102C58008820590608D56149E569D1F8882022F409
:102C680040522A43C1F888201A0608D55B49256ACC
:102C7800D1F8882022F440422A43C1F88820DF0591
:102C880008D55649656AD1F8882022F440322A438B
:102C9800C1F888209E0308D55049A56AD1F89C2020
:102CA80022F003022A43C1F89C209D0508D54B4910
:102CB800E56AD1F8882022F440222A43C1F8882006
:102CC80059050BD54549256BD1F8882022F44012C7
:102CD8002A43B5F5801FC1F888207AD01A050BD58C
:102CE8003E49656BD1F8882022F440022A43B5F5A5
:102CF800800FC1F8882075D0DF040BD53749A56B44
:102D0800D1F8882022F040722A43B5F1807FC1F8BB
:102D180088206CD09E040BD53049E56BD1F888200B
:102D280022F040622A43B5F1006FC1F8882063D0D1
:102D38005D040BD52949256CD1F8882022F0406222
:102D48002A43B5F1006FC1F888205AD019040BD571
:102D58002249656CD1F8882022F040522A43B5F107
:102D6800805FC1F8882051D0DA030BD51B49A56CC8
:102D7800D1F8882022F040422A43B5F1804FC1F8AB
:102D8800882048D05B030BD5144AE16CD2F89C30FC
:102D980023F440130B43B1F5001FC2F89C303FD019
:102DA80002B0BDE8F0819A6D42F080529A659B6D41
:102DB80003F080530193019B0127BBE6236803209E
:102DC800002F3FF404AF05498A6D22F080528A65CE
:102DD800FDE6CA6842F48012CA607FE7001002402C
:102DE80000700040CA6842F48012CA6084E7CA686A
:102DF80042F48012CA608DE7CA6842F48012CA6041
:102E080096E7CA6842F48012CA609FE7CA6842F42B
:102E18008032CA60A8E7CA6842F48032CA60B1E763
:102E2800D36843F48013D36002B0BDE8F08100BFDB
:102E3800036A026A22F00102026270B4446882697D
:102E48000D6822F4803222F073022A438D6823F041
:102E580002032B43154DA84213D005F50065A8427F
:102E68000FD005F54065A8420BD005F58065A8424E
:102E780007D005F58065A84203D005F50065A8428E
:102E88000DD1CD6823F008032B43D1E9056524F45F
:102E9800407446EA050C23F004034CEA040449682C
:102EA8004460826170BC416303627047002C01403A
:102EB800036A026A22F48072026270B44468C269CA
:102EC8000D6822F4803222F073022A438D6823F4BD
:102ED800007343EA0523164DA84213D005F5006593
:102EE800A8420FD005F5E055A8420BD0A5F58055AE
:102EF800A8420ED00F4DA8420BD005F58065A84218
:102F08000FD106E0CD6823F4006343EA052323F4D8
:102F18008063D1E9056524F4405446EA050C44EA87
:102F28000C1449684460C26170BCC1630362704795
:102F3800002C014000440140036A026A22F48052D6
:102F4800026270B44468C2690D6822F0807222F48B
:102F5800E64242EA05228D6823F4005343EA05332A
:102F6800164DA84213D005F50065A8420FD005F507
:102F7800E055A8420BD0A5F58055A8420ED0104DBB
:102F8800A8420BD005F58065A8420FD106E0CD68B0
:102F980023F4004343EA053323F48043D1E905656C
:102FA80024F4404446EA050C44EA8C144968446019
:102FB800C26170BC01640362704700BF002C01400D
:102FC8000044014090F83D30012B32D103681A4982
:102FD800022280F83D20DA688B4242F00102DA6072
:102FE80019D0B3F1804F16D0144A934213D002F58A
:102FF800806293420FD002F5806293420BD002F5B3
:103008009432934207D002F54062934203D002F50E
:103018008052934207D19968094A0A40062A06D085
:10302800B2F5803F03D01A6842F001021A6000200E
:1030380070470120704700BF002C01400004004089
:1030480007000100002800F0998038B590F83D305D
:10305800044603F0FF02002B7DD023684849022272
:1030680084F83D208B421A6861D0B3F1804F29D093
:10307800A1F594318B4225D001F580618B4221D096
:1030880001F580618B421DD001F594318B424ED001
:1030980001F5E0518B424AD0A1F580518B425FD0B7
:1030A80001F580618B425BD001F580618B4257D07E
:1030B800A5696168E06822F080022A431A60D86234
:1030C800996210E0A168206922F070020A4322F494
:1030D8004072A169024322F08002E0680A436168F5
:1030E8001A60D862996201225A611A69D20703D517
:1030F8001A6922F001021A61012384F8483084F821
:103108003E3084F83F3084F8403084F8413084F809
:10311800423084F8433084F8443084F8453084F8E9
:10312800463084F8473084F83D30002038BDA06828
:10313800216922F07002024322F440720A43A16915
:1031480022F080020A431A60E268DA6262689A62D0
:1031580062691A63C7E780F83C20FDF7C5FB7CE786
:103168002069A16922F44072024322F08002E068DB
:103178000A4361681A60D8629962E9E701207047DA
:10318800002C0140704700BF704700BF704700BF68
:10319800704700BF704700BFF8B50368DE681C6958
:1031A800A107054601D5B2076ED4600701D571079E
:1031B80057D4220701D5330740D4E10601D5F206DA
:1031C80028D4E30701D5F7077CD414F4025F04F48C
:1031D800807769D030067DD4620602D5730600F187
:1031E8008B80A70602D5B00600F18E80E10202D5D9
:1031F800F20200F19180A30202D5B70200F1948097
:10320800600202D5710200F19780220201D53302D3
:103218004FD4F8BD2B686FF010021A6108222A7784
:10322800DB6913F4407F284640F09780FFF7ACFF36
:103238002846FFF7ADFF00232B77C2E72B686FF016
:1032480008021A6104222A77DB699F07284640F0A2
:103258008180FFF799FF2846FFF79AFF00232B7715
:10326800ABE72B686FF004021A6102222A779B6988
:1032780013F4407F28466AD1FFF786FF2846FFF7F8
:1032880087FF00232B7794E76FF002021A6101226F
:1032980002779B699F0757D1FFF776FF2846FFF70C
:1032A80077FF00232B7780E7002F95D031061BD4BA
:1032B80092E72B686FF400021A612846BDE8F840CF
:1032C80000F03ABA2B686FF001021A612846FFF73E
:1032D80059FF7AE72B686FF402521A61284600F00A
:1032E80021FA002F3FF478AF2B686FF480721A61CF
:1032F800284600F019FA6FE72B686FF040021A6150
:103308002846FFF747FF6CE72B686FF020021A6129
:10331800284600F005FA69E72B686FF480121A61F5
:10332800284600F003FA66E72B686FF400121A616A
:10333800284600F0FDF963E72B686FF480021A61F4
:10334800284600F0F7F960E7FFF720FFA9E7FFF745
:103358001DFF96E7FFF71AFF80E7FFF717FF6AE7F9
:10336800036A026A22F01002026270B44468826939
:103378000D6822F0807222F4E64242EA05228D6846
:1033880023F0200343EA0513164DA84213D005F590
:103398000065A8420FD005F5E055A8420BD0A5F569
:1033A8008055A8420ED0104DA8420BD005F5806577
:1033B800A8420FD106E0CD6823F0800343EA051345
:1033C80023F04003D1E9056524F4406446EA050C7E
:1033D80044EA8C0449684460826170BC816303627A
:1033E800704700BF002C01400044014090F83C3079
:1033F800012B00F0E480012370B504460D4680F8E7
:103408003C30142A0CD8DFE802F0530B0B0B670B87
:103418000B0B780B0B0B880B0B0B990B0B0B100082
:10342800002384F83C30012070BD03682E681A6AB6
:10343800196A21F4801119625868196D21F0807198
:1034480021F4E04141EA0621AE6822F4001242EA82
:1034580006525C4EB34213D006F50066B3420FD055
:1034680006F54066B3420BD006F58066B34207D036
:1034780006F58066B34203D006F50066B34204D170
:103488006E6920F4802040EA8620586019656968D2
:10349800D9641A621A6D296942F400621A651A6DB4
:1034A80022F480621A651A6D42EA01221A650EE05A
:1034B8000068FFF7BDFC83692A6943F0080383614C
:1034C800836923F0040383618369134383610023C1
:1034D80084F83C30002070BD0068FFF741FF836925
:1034E8002A6943F400638361836923F480638361F9
:1034F800836943EA02238361E9E70068FFF7D8FCA0
:10350800C3692A6943F00803C361C36923F004034C
:10351800C361C3691343C361D9E70068FFF70CFDB2
:10352800C3692A6943F40063C361C36923F48063F0
:10353800C361C36943EA0223C361C8E703682E680D
:103548001A6A196A21F4803119625868196D21F4D0
:10355800803121F070013143AE6822F4003242EA32
:103568000642184EB34213D006F50066B3420FD098
:1035780006F54066B3420BD006F58066B34207D025
:1035880006F58066B34203D006F50066B34204D15F
:103598006E6920F4803040EA062058601965696831
:1035A80099641A621A6D296942F008021A651A6D3F
:1035B80022F004021A651A6D0A431A6587E7022089
:1035C800704700BF002C014090F83C30012B4ED0D2
:1035D80030B40268274D022380F83D30AA42536870
:1035E8000C68844690682CD005F50065AA4233D053
:1035F80005F5E055AA4224D023F0007323F07003A8
:103608002343B2F1804F53600ED01B4B9A420BD02C
:1036180003F580639A4207D003F580639A4203D08A
:1036280003F59A339A4204D18B6820F0800018433E
:103638009060002001238CF83D308CF83C0030BCB1
:1036480070474D6823F470032B4323F0007323F075
:10365800700323435360E7E74D6823F470032B435B
:1036680023F0007323F070031C435460DCE702204E
:10367800704700BF002C01400004004090F83C3027
:10368800012B48D010B4D1E9024323F44073024619
:10369800234348680C6823F48063034323F40063DE
:1036A8000869234323F480534C69034323F40053EC
:1036B800086B234323F480438C69034323F470236A
:1036C800C86943EA044323F08053144C0343106849
:1036D800A04207D004F50064A04203D004F5E054EA
:1036E800A04210D18C6A23F4700343EA04530C6A95
:1036F80023F0807323434C6AC96A23F00073234381
:1037080023F000530B430021436482F83C10084621
:103718005DF8044B70470220704700BF002C014041
:10372800704700BF704700BF704700BF704700BFB9
:10373800704700BF704700BF704700BF70B5D0F832
:103748008860202E24D1044601B31346F2B1A0F8B4
:10375800562000220165C0F89020A0F85430C06FB0
:103768002125C4F888502568A8B1826305F128028C
:10377800114DC562114D0563114D4563FDF776FF87
:1037880040B11023C4F89030C4F88860012070BD9F
:10379800022070BD256840232B6205F1080353E819
:1037A800003F43F0800305F1080141E80032002A98
:1037B800F3D1002070BD00BFD137000819380008C8
:1037C80031380008704700BF08B50368806A1B6875
:1037D80013F0200317D10268A0F8563002F108034D
:1037E80053E8003F23F0800302F1080040E800316D
:1037F8000029F3D152E8003F43F0400342E800318A
:103808000029F7D108BDFFF7DDFF08BD704700BFED
:1038180008B5806AFFF7FAFF08BD00BF704700BF10
:10382800704700BF704700BF806A0368D0F88810EF
:1038380010B5D0F88C409A68120601D521290DD010
:103848009A68520601D5222C23D0D0F8903043F044
:103858001003C0F89030FFF7E5FF10BD0022A0F874
:10386800562053E8002F22F0C00243E80021002927
:10387800F7D103F1080252E8002F22F4000203F105
:10388800080C4CE800210029F3D12022C0F8882038
:10389800D6E70022A0F85E2053E8002F22F49072A9
:1038A80043E800210029F7D1134C03F1080252E83C
:1038B800002F224003F1080C4CE800210029F4D124
:1038C800C26E012A06D000232022C0F88C2043674C
:1038D800C366BAE753E8002F22F0100243E800213C
:1038E8000029F0D053E8002F22F0100243E800210D
:1038F8000029EFD1E7E700BFFEFFFFEF08B5806AB8
:103908000023A0F85E30FFF78DFF08BD0368DA6971
:10391800196840F60F0C12EA0C0F70B59D68044642
:1039280045D1960607D501F0200C05F0805E5CEACB
:103938000E0C40F00681E06E012800F0D380D6021C
:103948001DD4160606D505F4000501F080002843AD
:1039580040F0FE8050061CD54E061AD553E8002FBD
:1039680022F0400243E800210029F7D12022002359
:10397800C4F88820A3672046FFF724FF70BD6802BB
:10398800DFD54FF4801220461A62BDE8704000F07F
:103998004DBD150202D5480000F1FF80D301EDD5D9
:1039A8000029EBDA2046BDE8704000F041BDB74879
:1039B80005EA000CB648084050EA0C00BBD0D60710
:1039C80009D5C80507D501201862D4F8900040F041
:1039D8000100C4F89000960702F0040040F1AA80A4
:1039E800EE0710D502261E62D4F8906046F0040651
:1039F800C4F8906038B104201862D4F8900040F000
:103A08000200C4F8900010070CD501F0200050EA1D
:103A18000C0007D008201862D4F8900040F0080085
:103A2800C4F8900016050AD5480108D54FF400607F
:103A38001862D4F8900040F02000C4F89000D4F840
:103A4800900000289AD0960606D501F0200105F0CE
:103A58008055294340F09580D4F890109A6801F079
:103A6800280102F0400252EA010500F0CC8053E838
:103A7800002F22F4907243E800210029F7D18548ED
:103A880003F1080252E8002F024003F1080545E857
:103A980000210029F4D1E26E012A61D00022202100
:103AA800C4F88C10E266996862674D0671D503F117
:103AB800080252E8002F22F0400203F1080040E813
:103AC80000210029F3D1D4F88000002861D0724B7E
:103AD8008363FDF75DFE00283FF450AFD4F8800003
:103AE800836B32E0D0067FF52AAFCE067FF527AF8D
:103AF80010221A629968B4F85C20480640F189805F
:103B0800D4F880000568696889B2002900F0B68099
:103B1800914280F0B380A4F85E102968890641D5E7
:103B280002232367B4F85E10511A204689B2FDF7C4
:103B38000FFC70BD00283FF466AFEE073FF55BAFA2
:103B480061E7436F002B3FF419AFBDE87040184799
:103B5800A36F002B3FF412AF2046BDE87040184712
:103B680053E8002F22F0100243E80021002995D0E5
:103B780053E8002F22F0100243E800210029EFD17A
:103B88008CE7626F002A3FF467AF204690472368AE
:103B980062E72046FFF746FE70BD2046BDE870404C
:103BA80000F048BC53E8002F22F4807243E800215B
:103BB8000029F7D103F1080252E8002F22F0010290
:103BC80003F1080545E800210029F3D103F10802B3
:103BD80052E8002F22F0400203F1080545E80021D1
:103BE8000029F3D12022C4F88C20E16653E8002F85
:103BF80022F0100243E800210029F7D1FDF78EFDDD
:103C0800B4F85C208CE72046FFF70CFEC4F890500F
:103C180070BDB4F85E00B4F85E1089B280B20029B5
:103C28003FF4ACAE121A91B200293FF4A7AE53E8A4
:103C3800002F22F4907243E800200028F7D1154D98
:103C480003F1080252E8002F2A4003F1080646E86B
:103C580000200028F4D12022C4F88C206067E06698
:103C680053E8002F22F0100243E800200028F7D183
:103C7800022323672046FDF76BFB70BD91427FF45A
:103C88007DAE2B689B06F3D470BD00BF0100001009
:103C980020010004FEFFFFEF05390008806A08B51F
:103CA80001230367C36E012B02D0FFF7B9FD08BDDE
:103CB800B0F85C104908FDF74BFB08BD08B5036870
:103CC800806A1A6812F0200228D10368A0F85E20E2
:103CD80053E8002F22F4807243E800210029F7D12D
:103CE80003F1080252E8002F22F0010203F1080C48
:103CF8004CE800210029F3D103F1080252E8002F13
:103D080022F0400203F1080C4CE800210029F3D10D
:103D18002022C0F88C20C26E012A07D00023036736
:103D2800C36E012B13D0FFF779FD08BD53E8002FB0
:103D380022F0100243E800210029EFD053E8002FB9
:103D480022F0100243E800210029EFD1E6E7B0F89D
:103D58005C10FDF7FDFA08BD70B50446036882687B
:103D6800006961691D6802430A43E069A04902438A
:103D780029400A431A605A68E168656A22F4405289
:103D88000A439C495A608B429968A26921F06E41A6
:103D980021F4306100F0D180266A32430A439A60E8
:103DA800DA6A22F00F022A43DA62934A934239D040
:103DB800924A934212D0924A934200F0A680914AC6
:103DC800934243D0904A934200F08F800120002311
:103DD8004FF00112C4E91D33A26670BD8B4BD3F8B6
:103DE800883003F00C030C2BF0D801A252F823F012
:103DF800073F0008D53D0008D53D0008D53D00081F
:103E08006D3E0008D53D0008D53D0008D53D0008A9
:103E1800B53E0008D53D0008D53D0008D53D000851
:103E2800853E0008794BD3F8883003F00303022B52
:103E38003CD0032B22D0012B14D0B0F5004F00F05A
:103E4800CE80FEF757FEA8B90020C0E76F4BD3F825
:103E5800883003F0C003802B28D063D8002B4ED0C5
:103E6800402BB3D1B0F5004F00F0BE80FEF7F4FC54
:103E78000028E9D0656A06E0302BA7D1B0F5004FDD
:103E880018D04FF400406368614A32F81510B0FB4F
:103E9800F1F04FF6EF7200EB5300B0FBF3F0A0F136
:103EA8001003934292D82368D860CDE7B0F5004F4D
:103EB8005848E8D16268564B33F81510B0FBF1F05A
:103EC800530803EB40034FF6EF71B3FBF2F3A3F192
:103ED80010028A423FF67AAF23F00F02216892B2AD
:103EE800C3F342031343CB60AEE7484BD3F88830A3
:103EF80003F44073B3F5007FD8D01AD8ABB9B0F546
:103F0800004F65D0FEF7E4FD9DE7404BD3F88830BD
:103F180003F03003202BC9D0AED8002BEFD0102BE4
:103F2800A0D053E7C02BA9D050E7B3F5807F99D034
:103F38004CE7B3F5407FA1D048E711439960DA6AAE
:103F4800324922F00F022A43DA62D1F8883003F4AA
:103F58004063B3F5006F45D033D87BB3B3F5806FBA
:103F68007FF434AFFEF778FC00283FF46DAF656A44
:103F78006668274B06EB460133F81520B0FBF2F3D1
:103F880099423FF623AFB3EB063F3FF61FAF00233E
:103F98001946FCF73DF972080302090241EA10616B
:103FA800981841F1000132460023FCF731F91A4B09
:103FB800A0F540729A423FF609AF74E7FEF788FD14
:103FC800D2E7B3F5406F7FF401AF4FF40040CFE77D
:103FD800FEF77EFD00283FF437AF656A6AE7FEF713
:103FE80089FDF7E70B48C3E7FEF736FCF2E700BFA9
:103FF800F369FFCF008000400038014000440040D2
:1040080000480040004C00400050004000100240B2
:10401800804600080024F400FFFC0F00836A1A079A
:1040280010B406D50168846B4A6822F40042224322
:104038004A60DC0706D50168C46A4A6822F400327F
:1040480022434A60990706D50168046B4A6822F43E
:10405800803222434A605A0706D50168446B4A6891
:1040680022F4802222434A60DC0606D50168C46B2C
:104078008A6822F4805222438A60990606D501682C
:10408800046C8A6822F4005222438A605A0609D5D1
:104098000168446C4A6822F480122243B4F5801FF8
:1040A8004A600BD01B0606D50268C16C536823F41E
:1040B80000230B4353605DF8044B70474A68846CD7
:1040C80022F4C00222434A60ECE700BF38B500235F
:1040D8000446C0F89030FDF7BBF9226813681B0747
:1040E80005460FD41368590731D400232022C4F899
:1040F80088201846C4F88C20E3662367002384F8D8
:10410800843038BDD3699802ECD40CE019684907AB
:104118001A4605D5D96908074AD4D969090575D455
:10412800DB699802DED4FDF793F9431BB3F1007FF6
:104138002368EBD353E8002F22F0800243E80021E4
:104148000029F7D12023C4F888300320D6E7D369A3
:104158005B02CAD40DE01A68500707D5DA6911075F
:1041680000F18280DA69120500F1AC80DB695B023C
:10417800BBD4FDF76DF9431BB3F1007F2368EAD385
:1041880053E8002F22F4907243E800210029F7D168
:1041980003F1080252E8002F22F0010203F108009F
:1041A80040E800210029F3D12023C4F88C30CCE763
:1041B80008221A6253E8002F22F4907243E8002183
:1041C8000029F7D1564803F1080252E8002F0240AF
:1041D80003F1080545E800210029F4D1E26E012A1F
:1041E8000BD0002220200821C4F88C006267E26608
:1041F80084F88420C4F890109CE753E8002F22F03C
:10420800100243E800210029F7D1EAE74FF40062E1
:104218001A6253E8002F22F4907243E80021002923
:10422800F7D13F4803F1080252E8002F024003F19A
:10423800080545E800210029F4D1E26E012A0AD0D8
:1042480000222021C4F88C106267E26684F884207A
:10425800C4F890106EE753E8002F22F0100243E8EC
:1042680000210029F7D1EBE708221A6253E8002F52
:1042780022F4907243E800210029F7D1284803F17D
:10428800080252E8002F024003F1080545E8002122
:104298000029F4D1E26E012A0BD000222020082147
:1042A800C4F88C006267E26684F88420C4F8901031
:1042B80066E753E8002F22F0100243E800210029A6
:1042C800F7D1EAE74FF400621A6253E8002F22F4AC
:1042D800907243E800210029F7D1114803F1080240
:1042E80052E8002F024003F1080545E800210029A3
:1042F800F4D1E26E012A0AD000222021C4F88C10E1
:104308006267E26684F88420C4F8901038E753E8BE
:10431800002F22F0100243E800210029F7D1EBE733
:10432800FEFFFFEF80B3D0F8883010B5044633B3F2
:104338002268A16A2423C4F88830136823F0010393
:104348001360C1B92046FFF707FD012811D0236883
:104358005A6822F490425A609A6822F02A029A60B7
:104368001A6842F0010220461A60BDE81040FFF7C3
:10437800ADBE012010BD2046FFF750FEE2E780F8F1
:104388008430FCF7D1FAD3E70120704738B50546E9
:10439800134622200022C5F89020C5F88C00D5F8D5
:1043A80080002C68A965A5F85C3068B182630A466C
:1043B80004F124011A4CC4621A4C04631A4C446375
:1043C800FDF754F918BB2C682B693BB154E8003F42
:1043D80043F4807344E80032002AF7D104F108035B
:1043E80053E8003F43F0010304F1080141E80032BB
:1043F800002AF3D104F1080353E8003F43F04003D7
:1044080004F1080242E800300028F3D138BD102238
:104418002023C5F890200120C5F88C3038BD00BF96
:10442800C53C0008A53C000831380008704700BFAB
:10443800704700BF704700BF90F88430012B17D039
:104448000268242310B4C0F8883011681468002367
:1044580024F0010421F0005114604366116080F8D3
:1044680084302022C0F888205DF8044B1846704735
:104478000220704790F88420012A37D0034602684A
:10448800242030B5C3F888001468106820F00100B3
:104498001060906820F060400143586E916010B33E
:1044A80091689068124DC1F3426C4FEA507E1149F1
:1044B80011F80E0011F80C1015F80EE015F80C5054
:1044C800C000C900B0FBFEF0B1FBF5F1A3F868101D
:1044D8000021A3F86A002025146083F88410084698
:1044E800C3F8885030BD01210846EFE70220704725
:1044F80098460008A046000890F88420012A37D082
:1045080003460268242030B5C3F888001468106890
:1045180020F001001060906820F060600143586E40
:10452800916010B391689068124DC1F3426C4FEAE4
:10453800507E114911F80E0011F80C1015F80EE014
:1045480015F80C50C000C900B0FBFEF0B1FBF5F146
:10455800A3F868100021A3F86A002025146083F8E6
:1045680084100846C3F8885030BD01210846EFE79B
:104578000220704798460008A046000870B5D0F899
:104588008C60202E03D101B11AB9012070BD022020
:1045980070BD0123C366002303670446FFF7F6FED8
:1045A8000028F3D1E36E012BEFD1226810231362A8
:1045B80052E8003F43F0100342E800310029F7D1E8
:1045C80070BD00BF02440346934200D1704703F810
:1045D800011BF9E770B50D4D0D4C641BA4100026A6
:1045E800A64209D10B4D0C4C00F026F8641BA41010
:1045F8000026A64205D170BD55F8043B9847013600
:10460800EEE755F8043B98470136F2E7B046000854
:10461800B0460008B0460008B44600080A44914273
:1046280000F1FF3300D1704710B511F8014B03F8C2
:10463800014F9142F9D110BDF8B500BFF8BC08BCD4
:104648009E467047F8B500BFF8BC08BC9E46704748
:104658000000000001020304000000000000000048
:1046680001020304060708090001020304050607FE
:10467800080C101418203040010002000400060045
:1046880008000A000C001000200040008000000113
:1046980008040204080101010101010307010000E7
:0846A800A0BBFF7F0100000030
:0446B000FD01000800
:0446B400D901000820
:1046B8000024F4009600000030750000DF070100B8
:1046C80005000000DF0701000F000000E0072200DE
:1046D80010130104E10722001C1E02040000000060
:1046E80000000000000000000000000000000000C2
:1046F80000000000000000000000000000000000B2
:1047080000000000000000000000000000000000A1
:104718000000000000000000000000000000000091
:104728000000000000000000000000000000000081
:104738000000000000000000000000000000000071
:104748000000000000000000000000000000000061
:104758000000000000000000000000000000000051
:104768000000000000000000000000000000000041
:1047780000000000DF07010006000000DF0701005D
:104788000B000000DF0701000C000000DF0701003C
:104798000D000000DF0701000E000000DF07010028
:1047A80011000000DF07010034000000DF070100EE
:1047B8003C000000DF07010044000000DF070100A3
:1047C800450000000000000000000000000000009C
:1047D80000000000000000000000000000000000D1
:1047E80000000000000000000000000000000000C1
:1047F80000000000000000000000000000000000B1
:1048080000000000000000000000000000000000A0
:104818000000000000000000000000000000000090
:10482800000000000000000000000000010000007F
:04483800100000006C
:0400000508000AC124
:00000001FF
