:020000040800F2
:1000000000000220ED190008E9150008ED150008B0
:10001000F1150008F5150008F915000800000000AA
:10002000000000000000000000000000FD150008B6
:100030000116000800000000051600080916000857
:100040003D1A00083D1A00083D1A00083D1A000834
:100050003D1A00083D1A00083D1A00083D1A000824
:100060003D1A00083D1A00083D1A00080D16000848
:10007000191600083D1A00083D1A00083D1A00082C
:100080003D1A00083D1A00083D1A00083D1A0008F4
:100090003D1A0008251600083D1A00083D1A000800
:1000A0003D1A0008311600083D1A00083D1A0008E4
:1000B0003D1A00083D1A00083D1A0008C124000836
:1000C0003D1A00083D1A00083D1A00083D1A0008B4
:1000D0003D1A0008451600083D1A00083D1A0008A0
:1000E0003D1A00083D1A00083D1A00083D1A000894
:1000F0003D1A00083D1A00083D1A00083D1A000884
:100100003D1A00083D1A00083D1A00083D1A000873
:100110003D1A00083D1A00083D1A00083D1A000863
:10012000511600083D1A00083D1A00083D1A000843
:100130003D1A00083D1A00083D1A00083D1A000843
:100140003D1A00083D1A00083D1A00083D1A000833
:100150003D1A00083D1A00083D1A00083D1A000823
:100160003D1A00083D1A00083D1A00083D1A000813
:100170003D1A00083D1A00083D1A00083D1A000803
:100180003D1A00083D1A00083D1A00083D1A0008F3
:100190003D1A0008000000003D1A00083D1A000842
:1001A0003D1A00083D1A00083D1A00083D1A0008D3
:1001B0003D1A00083D1A00083D1A00083D1A0008C3
:1001C0003D1A00083D1A00083D1A00083D1A0008B3
:0801D0003D1A00083D1A000869
:1001E00010B5054C237833B9044B13B10448AFF371
:1001F00000800123237010BD600A00200000000071
:100200007C97000808B5034B1BB103490348AFF3C3
:10021000008008BD00000000640A00207C970008F0
:1002200001F0FF01102A2BDB10F0070F08D010F8A7
:10023000013B013A8B422DD010F0070F42B3F6D1AB
:10024000F0B441EA012141EA014122F007047FF0C4
:1002500000070023F0E80256083C85EA010586EA1B
:10026000010685FA47F5A3FA87F586FA47F6A5FA57
:1002700087F68EB9EED1F0BC01F0FF0102F0070263
:1002800032B110F8013B013A83EA010313B1F8D10E
:100290000020704701387047002D06BF35460338EF
:1002A000073815F0010F07D1013015F4807F02BF28
:1002B000013015F4C03F0130F0BC0138704700BF79
:1002C000034613F8012B002AFBD1181A0138704796
:1002D00081F0004102E000BF83F0004330B54FEAF7
:1002E00041044FEA430594EA050F08BF90EA020F64
:1002F0001FBF54EA000C55EA020C7FEA645C7FEAF7
:10030000655C00F0E2804FEA5454D4EB5555B8BF19
:100310006D420CDD2C4480EA020281EA030382EA8A
:10032000000083EA010180EA020281EA0303362D1C
:1003300088BF30BD11F0004F4FEA01314FF4801CEF
:100340004CEA113102D0404261EB410113F0004F01
:100350004FEA03334CEA133302D0524263EB4303B8
:1003600094EA050F00F0A780A4F10104D5F1200E56
:100370000DDB02FA0EFC22FA05F2801841F10001B1
:1003800003FA0EF2801843FA05F359410EE0A5F185
:1003900020050EF1200E012A03FA0EFC28BF4CF0B6
:1003A000020C43FA05F3C01851EBE37101F000456C
:1003B00007D54FF0000EDCF1000C7EEB00006EEB79
:1003C0000101B1F5801F1BD3B1F5001F0CD3490803
:1003D0005FEA30004FEA3C0C04F101044FEA44525A
:1003E00012F5800F80F09A80BCF1004F08BF5FEAE1
:1003F000500C50F1000041EB045141EA050130BDC1
:100400005FEA4C0C404141EB0101013C28BFB1F5D2
:10041000801FE9D291F0000F04BF01460020B1FA1D
:1004200081F308BF2033A3F10B03B3F120020CDAF0
:100430000C3208DD02F1140CC2F10C0201FA0CF0CE
:1004400021FA02F10CE002F11402D8BFC2F1200C33
:1004500001FA02F120FA0CFCDCBF41EA0C019040E9
:10046000E41AA2BF01EB0451294330BD6FEA040432
:100470001F3C1CDA0C340EDC04F11404C4F120021D
:1004800020FA04F001FA02F340EA030021FA04F32F
:1004900045EA030130BDC4F10C04C4F1200220FA86
:1004A00002F001FA04F340EA0300294630BD21FAC4
:1004B00004F0294630BD94F0000F83F4801306BF8A
:1004C00081F480110134013D4EE77FEA645C18BF7E
:1004D0007FEA655C29D094EA050F08BF90EA020F15
:1004E00005D054EA000C04BF1946104630BD91EA0D
:1004F000030F1EBF0021002030BD5FEA545C05D110
:100500004000494128BF41F0004130BD14F580044E
:100510003CBF01F5801130BD01F0004545F0FE41C2
:1005200041F470014FF0000030BD7FEA645C1ABFF7
:10053000194610467FEA655C1CBF0B46024650EA2E
:10054000013406BF52EA033591EA030F41F400215A
:1005500030BD00BF90F0000F04BF0021704730B5E0
:100560004FF4806404F132044FF000054FF00001B5
:1005700050E700BF90F0000F04BF0021704730B576
:100580004FF4806404F1320410F0004548BF40424B
:100590004FF000013EE700BF42004FEAE2014FEAA0
:1005A00031014FEA02701FBF12F07F4393F07F4F7B
:1005B00081F06051704732F07F4208BF704793F07E
:1005C0007F4F04BF41F40021704730B54FF4607491
:1005D00001F0004521F000411CE700BF50EA010294
:1005E00008BF704730B54FF000050AE050EA01023D
:1005F00008BF704730B511F0004502D5404261EBAD
:1006000041014FF4806404F132045FEA915C3FF4ED
:10061000D8AE4FF003025FEADC0C18BF03325FEA8A
:10062000DC0C18BF033202EBDC02C2F1200300FA3B
:1006300003FC20FA02F001FA03FE40EA0E0021FA60
:1006400002F11444BDE600BF70B54FF0FF0C4CF44E
:10065000E06C1CEA11541DBF1CEA135594EA0C0F00
:1006600095EA0C0F00F0DEF82C4481EA030621EA3B
:100670004C5123EA4C5350EA013518BF52EA033576
:1006800041F4801143F4801338D0A0FB02CE4FF028
:100690000005E1FB02E506F00042E0FB03E54FF058
:1006A0000006E1FB03569CF0000F18BF4EF0010E50
:1006B000A4F1FF04B6F5007F64F5407404D25FEA4C
:1006C0004E0E6D4146EB060642EAC62141EA5551FF
:1006D0004FEAC52040EA5E504FEACE2EB4F1FD0C41
:1006E00088BFBCF5E06F1ED8BEF1004F08BF5FEABF
:1006F000500E50F1000041EB045170BD06F0004671
:1007000046EA010140EA020081EA0301B4EB5C041D
:10071000C2BFD4EB0C0541EA045170BD41F4801115
:100720004FF0000E013C00F3AB8014F1360FDEBF3A
:10073000002001F0004170BDC4F10004203C35DA16
:100740000C341BDC04F11404C4F1200500FA05F399
:1007500020FA04F001FA05F240EA020001F000423A
:1007600021F0004110EBD37021FA04F642EB0601B0
:100770005EEA430E08BF20EAD37070BDC4F10C04DA
:10078000C4F1200500FA04F320FA05F001FA04F29E
:1007900040EA020001F0004110EBD37041F100018A
:1007A0005EEA430E08BF20EAD37070BDC4F1200595
:1007B00000FA05F24EEA020E20FA04F301FA05F2FD
:1007C00043EA020321FA04F001F0004121FA04F2A5
:1007D00020EA020000EBD3705EEA430E08BF20EA75
:1007E000D37070BD94F0000F0FD101F000464000AF
:1007F00041EB010111F4801F08BF013CF7D041EA31
:10080000060195F0000F18BF704703F00046520034
:1008100043EB030313F4801F08BF013DF7D043EA05
:100820000603704794EA0C0F0CEA135518BF95EABB
:100830000C0F0CD050EA410618BF52EA4306D1D142
:1008400081EA030101F000414FF0000070BD50EA61
:10085000410606BF1046194652EA430619D094EAEB
:100860000C0F02D150EA013613D195EA0C0F05D1D5
:1008700052EA03361CBF104619460AD181EA030129
:1008800001F0004141F0FE4141F470014FF00000E1
:1008900070BD41F0FE4141F4780170BD70B54FF07C
:1008A000FF0C4CF4E06C1CEA11541DBF1CEA1355FC
:1008B00094EA0C0F95EA0C0F00F0A7F8A4EB0504DE
:1008C00081EA030E52EA03354FEA013100F08880D5
:1008D0004FEA03334FF0805545EA131343EA12639E
:1008E0004FEA022245EA111545EA10654FEA002653
:1008F0000EF000419D4208BF964244F1FD0404F50C
:10090000407402D25B084FEA3202B61A65EB030567
:100910005B084FEA32024FF480104FF4002CB6EB24
:10092000020E75EB030E22BFB61A754640EA0C00A4
:100930005B084FEA3202B6EB020E75EB030E22BFE4
:10094000B61A754640EA5C005B084FEA3202B6EB25
:10095000020E75EB030E22BFB61A754640EA9C00E4
:100960005B084FEA3202B6EB020E75EB030E22BFB4
:10097000B61A754640EADC0055EA060E18D04FEA72
:10098000051545EA16754FEA06164FEAC30343EA12
:1009900052734FEAC2025FEA1C1CC0D111F4801FDF
:1009A0000BD141EA00014FF000004FF0004CB6E7D8
:1009B00011F4801F04BF01430020B4F1FD0C88BF77
:1009C000BCF5E06F3FF6AFAEB5EB030C04BFB6EB82
:1009D000020C5FEA500C50F1000041EB045170BD75
:1009E0000EF0004E4EEA113114EB5C04C2BFD4EBA2
:1009F0000C0541EA045170BD41F480114FF0000E26
:100A0000013C90E645EA060E8DE60CEA135594EAA1
:100A10000C0F08BF95EA0C0F3FF43BAF94EA0C0FA4
:100A20000AD150EA01347FF434AF95EA0C0F7FF419
:100A300025AF104619462CE795EA0C0F06D152EA6D
:100A400003353FF4FDAE1046194622E750EA410651
:100A500018BF52EA43067FF4C5AE50EA41047FF462
:100A60000DAF52EA43057FF4EBAE12E74FF0FF3CC7
:100A700006E000BF4FF0010C02E000BF4FF0010C98
:100A80004DF804CD4FEA410C7FEA6C5C4FEA430C11
:100A900018BF7FEA6C5C1BD001B050EA410C0CBF60
:100AA00052EA430C91EA030F02BF90EA020F0020C2
:100AB000704710F1000F91EA030F58BF994208BF29
:100AC00090422CBFD8176FEAE37040F001007047E6
:100AD0004FEA410C7FEA6C5C02D150EA013C07D13D
:100AE0004FEA430C7FEA6C5CD6D152EA033CD3D088
:100AF0005DF8040B704700BF8446104662468C4682
:100B00001946634600E000BF01B5FFF7B7FF0028B4
:100B100048BF10F1000F01BD4DF808EDFFF7F4FFDD
:100B20000CBF012000205DF808FB00BF4DF808ED68
:100B3000FFF7EAFF34BF012000205DF808FB00BF8B
:100B40004DF808EDFFF7E0FF94BF012000205DF8AD
:100B500008FB00BF4DF808EDFFF7CEFF94BF012062
:100B600000205DF808FB00BF4DF808EDFFF7C4FF5B
:100B700034BF012000205DF808FB00BF4FEA410CA4
:100B80007FEA6C5C02D150EA013C0AD14FEA430C87
:100B90007FEA6C5C02D152EA033C02D14FF00000C4
:100BA00070474FF0010070474FEA410212F5001202
:100BB00015D211D56FF47873B3EB625212D94FEAA4
:100BC000C12343F0004343EA505311F0004F23FA8E
:100BD00002F018BF404270474FF00000704750EAE3
:100BE000013005D111F0004008BF6FF000407047A0
:100BF0004FF00000704700BF4FEA4102B2F1E043FE
:100C000024BFB3F5001CDCF1FE5C0DD901F0004CF3
:100C10004FEAC0024CEA5070B2F1004F40EB830043
:100C200008BF20F00100704711F0804F21D113F16F
:100C30003872BCBF01F00040704741F480114FEAA8
:100C40005252C2F11802C2F1200C10FA0CF320FA31
:100C500002F018BF40F001004FEAC1234FEAD3234E
:100C600003FA0CFC40EA0C0023FA02F34FEA4303B8
:100C7000CCE77FEA625307D150EA01331EBF4FF041
:100C8000FE4040F44000704701F0004040F0FE405C
:100C900040F40000704700BF53B94AB9002908BFAB
:100CA00000281CBF4FF0FF314FF0FF3000F06AB951
:100CB000ADF1080C6DE904CE00F006F8DDF804E0B3
:100CC000DDE9022304B070472DE9F047089D0C468A
:100CD000002B4ED194468C458646B2FA82F262D9F8
:100CE0004AB1C2F12003914020FA03F30CFA02FC4E
:100CF000194300FA02FE4FEA1C471FFA8CF6B1FBBB
:100D0000F7F44FEA1E4307FB141143EA014304FBC7
:100D100006F199420AD91CEB030304F1FF3080F07D
:100D20001281994240F20F81023C6344591A1FFA22
:100D30008EF3B1FBF7F007FB101143EA014300FB10
:100D400006F69E420AD91CEB030300F1FF3180F046
:100D5000FC809E4240F2F980634402389B1B40EACB
:100D6000044000211DB1D3400022C5E90032BDE896
:100D7000F0878B4205D90DB1C5E900010021084675
:100D8000F5E7B3FA83F1002946D1A34202D390429A
:100D9000C0F0F080861A64EB03030120002DE6D03A
:100DA000C5E90063E3E7002A40F09080A1EB0C0462
:100DB0004FEA1C481FFA8CF70121B4FBF8F64FEA02
:100DC0001E4308FB164443EA044307FB06F098421F
:100DD00008D91CEB030306F1FF3402D2984200F25B
:100DE000CD8026461C1A1FFA8EF3B4FBF8F008FBE0
:100DF000104443EA044300FB07F79F4208D91CEB69
:100E0000030300F1FF3402D29F4200F2B08020467B
:100E1000DB1B40EA0640A5E7C1F120068B4022FA21
:100E200006F71F4320FA06FC04FA01F343EA0C0319
:100E3000F44000FA01F8380C4FEA1349B4FBF0FE15
:100E40001FFA87FC00FB1E4449EA04440EFB0CF920
:100E5000A14502FA01F20AD93C190EF1FF3A80F0DD
:100E60008480A14540F28180AEF1020E3C44A4EBA7
:100E700009041FFA83F9B4FBF0F300FB134449EAB9
:100E8000044403FB0CFCA44507D93C1903F1FF30D3
:100E900067D2A44565D9023B3C4443EA0E40A0FB1F
:100EA0000293A4EB0C049C42CE469C4651D34ED0F8
:100EB00055B1B8EB0E0364EB0C0404FA06F6CB4014
:100EC0001E43CC40C5E90064002150E7C2F1200375
:100ED00020FA03F10CFA02FC24FA03F394400C43C9
:100EE0004FEA1C4800FA02FE1FFA8CF7B3FBF8F039
:100EF00008FB1031230C43EA014300FB07F1994240
:100F000008D91CEB030300F1FF362CD299422AD9F1
:100F1000023863445B1AA4B2B3FBF8F108FB113347
:100F200044EA034401FB07F3A34208D91CEB040481
:100F300001F1FF3613D2A34211D902396444E41AF5
:100F400041EA004139E70446F0E6084606E7C845AD
:100F5000AED2B9EB020E63EB070C0138A8E73146BD
:100F6000EDE7034699E73046D4E7D6467FE763448A
:100F700002384DE70646234608460FE7023E634423
:100F800030E700BF704700BF10B500248CB02022AE
:100F9000214604A8CDE90144039406F026FB3B4812
:100FA0004FF440324FF0A041C0E9001204228261A8
:100FB0004FF48072012382830522C0E90244C0E914
:100FC0000443C0E90B44026280F8244080F83830C2
:100FD000C46380F8404001F03BFD00283FD100236E
:100FE0002A48019301A902F019FA00284AD1284A97
:100FF0000492002306217F22CDE90513079223489E
:10100000042204A9CDE9082301F08EFE002836D180
:10101000204A1E480C2304A9CDE9042301F084FED4
:1010200050BB1D4A1948122304A9CDE9042301F03D
:101030007BFEF0B9194A1548182304A9CDE9042309
:1010400001F072FE90B9164A10484FF4807304A95B
:10105000CDE9042301F068FE20B90CB010BD00F00A
:10106000A7FABCE700F0A4FA0CB010BD00F0A0FA9B
:10107000E9E700F09DFADDE700F09AFAD1E700F029
:1010800097FAC5E700F094FAB1E700BFDC0A002048
:1010900002003004040060080800900C1000C0102A
:1010A0002000F01470B504469EB00021542209A817
:1010B000CDE90411CDE90611089106F096FA2368EE
:1010C000B3F1A04F01D01EB070BD4FF400424FF0FD
:1010D000005309A809921A9303F0BCFD00284AD1D5
:1010E000284B294DDA6C42F40052DA64DA6C02F4CF
:1010F00000520192019ADA6C42F00102DA64DA6C71
:1011000002F001020292029ADA6C42F00202DA6400
:10111000DB6C03F00203002603930F2204A94FF0B7
:1011200090400323CDE904230696039B03F05AF86D
:101130004FF4804203231548069604A9CDE9042301
:1011400003F050F8124A2E620523C5E900238022DD
:101150004FF40073C5E9042328464FF400622023AE
:10116000C5E90266C5E9062302F082FA30B9656571
:10117000AC621EB070BD00F01BFAB1E700F018FAC7
:10118000F5E700BF001002407C0A00200004004880
:10119000080402401B4B10B5986C40F004009864A2
:1011A0009C6C84B004F004040194019C9C6C0121AB
:1011B0000C439C649C6C0C400294029C9C6C44F01C
:1011C00002049C649B6C03F00203002203930B2037
:1011D000039B02F0E9F90B2002F022FA0022012120
:1011E0000C2002F0E1F90C2002F01AFA002238205B
:1011F000114602F0D9F9382004B0BDE8104002F0E1
:101200000FBA00BF0010024010B51E481E4C04600B
:10121000022400230122052188B044610B24C0E987
:101220000113C0E90624C0E90812C0E90A22C0E996
:101230000C23C0E90E33C3600382837402F0C6FB43
:10124000C8B900230121CDE9043140F2DF7440F236
:10125000FF720C4802A9CDE90233CDE9064202F043
:1012600003FD58B90123022200931146054802F0FC
:1012700027FD08B010BD00F09BF9E2E700F098F9F7
:10128000F0E700BF480B00200064004000000000B1
:1012900010B504469CB00021542207A8CDE90211E4
:1012A000CDE90411069106F0A0F9234B22689A4279
:1012B00001D01CB010BD4FF480524FF0007307A84E
:1012C0000792159303F0C6FC58BB1C4B9A6D42F075
:1012D00000729A659A6D02F000720092009ADA6CC0
:1012E0009FED117B42F00102DA64DB6C8DED027B35
:1012F0009FED0F7B03F00103019302A909234FF037
:1013000090408DED047B0693019A02F06BFF002262
:101310000321152002F048F9152002F081F91CB0D4
:1013200010BD00F045F9D0E70018000002000000F1
:1013300000000000000000000064004000100240B7
:10134000F0B500248BB0CDE90444CDE906442A4B26
:101350000894DA6C294D2A4F42F00402DA64DA6C00
:1013600002F004020092009ADA6C42F02002DA6481
:10137000DA6C02F020020192019ADA6C42F001026A
:10138000DA64DA6C02F001020292029ADA6C42F03C
:101390000202DA64DB6C03F0020303932246284660
:1013A0004FF40051039B03F025F8224638464FF4D2
:1013B000C05103F01FF801264FF4005304A928463A
:1013C000CDE90436CDE9064402F00CFF012228469F
:1013D00004A90023CDE90423069402F003FF4FF48F
:1013E000C053049304A903233846CDE90564079349
:1013F00002F0F8FE0BB0F0BD0010024000080048FB
:10140000000400482DE9F04DA4B00021502210A89E
:10141000CDE90911CDE90B11CDE90D11CDE903118C
:10142000CDE9051108910291079106F0DEF84023FD
:101430000FA80F9303F00EFC00285BD12F4E30480D
:10144000F36C304C43F00203F364F36C03F00203DB
:10145000002501934FF002088023012702A94FF0D5
:10146000000A4FF0040B019A0293CDE906AB0495F4
:10147000CDF80C80059705F043F902A94FF480736D
:101480001F480293CDE906ABCDF80C800597049573
:1014900005F036F9B36D43F40013B365B36D0895E9
:1014A00003F400130093184B009A099300220023C1
:1014B00008A92046CDE90C23CDE90A550E9505F083
:1014C000E3F9636843F000736360E36823F4FF6348
:1014D00023F00603E360E36823F40043E36023683A
:1014E00023F400232360236823F40033236024B013
:1014F000BDE8F08D00F05CF8A0E700BF00100240EE
:101500000004004800540040C285B24010B594B0B9
:101510003822002106A806F068F80020CDE9010075
:10152000CDE90300059002F075FF01204FF48031F2
:1015300002230324CDE90601552206A8CDE90D3486
:10154000CDE90F42CDE91133139302F0DDFF08B16D
:1015500072B6FEE7042103460F220DEB0100CDE930
:101560000124CDE90333059303F04CFA08B172B6B8
:10157000FEE714B010BD00BF08B501F035FAFFF763
:10158000C5FFFFF7DDFEFFF705FE00F059F900F09B
:10159000CBF8FFF739FEFFF735FFFFF7F5FC4FF407
:1015A0007A7001F043FA00F04BFA00F093FAFCE78E
:1015B00072B6FEE70B4B1A6E42F001021A661A6E03
:1015C00082B002F001020092009A9A6D42F08052BD
:1015D0009A659B6D03F080530193019B02B002F06A
:1015E0008BBF00BF00100240FEE700BFFEE700BF58
:1015F000FEE700BFFEE700BFFEE700BF704700BF89
:10160000704700BF704700BF01F0FEB9014802F00B
:101610008FB900BF600C0020014802F089B900BFFB
:10162000000C0020014802F019BD00BF480B00204B
:1016300008B5034803F04EFEBDE8084000F01ABAB2
:10164000B00B0020014804F0FFB900BFC00C00201F
:10165000014802F06DB900BF7C0A002001207047EC
:1016600008B506F015F8162303604FF0FF3008BDEB
:1016700008B506F00DF816230360FEE770B5161ED8
:1016800007DD0C468D19AFF3008004F8010BA5426D
:10169000F9D1304670BD00BF70B5161E07DD0C468F
:1016A0008D1914F8010BAFF30080AC42F9D130462C
:1016B00070BD00BF4FF0FF30704700BF4FF40053C4
:1016C0004B600020704700BF01207047002070472A
:1016D0000C490D4A0B6810B50C4C121B2BB1184469
:1016E000904207D80860184610BD094B0B6018449B
:1016F0009042F7D905F0CCFF0C2303604FF0FF3385
:10170000184610BDAC0B00200000022000040000B1
:10171000C8360020034AD2F8883043F47003C2F878
:101720008830704700ED00E010B5002498B03422F6
:1017300021460BA8CDE90144CDE90544CDE9074494
:10174000CDE909440094049405F04FFF2A482B4A40
:10175000A923C0E9002363228023C0E90242C0E933
:101760000444836103F00CFD98BB00230022CDE903
:101770000023214800236946029303F0C3FF90BB76
:101780009FED1B7B002260231B48049304A98DED71
:10179000087BCDE9052207920A9203F0C5FEF8B94D
:1017A00000234FF400544FF00072134817930BA915
:1017B000CDE90B33CDE90D33CDE90F34CDE911334C
:1017C000CDE91332CDE9153303F0F6FF20B918B097
:1017D00010BDFFF7EDFEC8E7FFF7EAFE18B010BD39
:1017E000FFF7E6FEDCE7FFF7E3FEC9E7AFF30080B3
:1017F0000000000000000000B00B0020002C0140A1
:101800000E4B02689A4200D0704703F5644300B55E
:10181000196E41F4006119661B6E83B0002203F457
:101820000063019319201146019B01F0BDFE1920B0
:1018300003B05DF804EB01F0F3BE00BF002C0140E3
:1018400010B52248224C234A0023C0E900424FF43D
:1018500080514FF48062C0E902130C240261082118
:101860004FF40042C0E90543C0E90733C0E909313C
:10187000826304F0F5FD70B91448002104F098FE6D
:1018800088B91248002104F0D5FEA0B90F4804F031
:1018900071FEB8B910BDFFF78BFE0C48002104F0B3
:1018A00087FE0028EDD0FFF783FE0848002104F0F2
:1018B000C1FE0028EAD0FFF77BFE044804F05AFE80
:1018C0000028E7D0BDE81040FFF772BEC00C002032
:1018D0000038014020A1070070B504469CB00021EB
:1018E000542207A8CDE90211CDE90411069105F0B3
:1018F0007CFE374B22689A4201D01CB070BD012398
:1019000007A8079303F0A6F9002858D1314B3248B5
:101910001A6E324E42F480421A661A6E02F4804207
:101920000092009ADA6C42F00402DA64DB6C03F095
:101930000403019330220223CDE902230022019BFC
:101940000323CDE9042302A90723069302F04AFCEE
:10195000234918220023C6E90012304680214FF4A3
:101960004052C6E90233C6E90413C6E906333262BF
:1019700001F07EFE48BB1B4D1B49C4F88060192254
:10198000C5E900128022002310212A6128464FF465
:101990004052C5E90213C5E90533C5E90732B4620F
:1019A00001F066FE70B9002202212520E567AC62D5
:1019B00001F0FAFD252001F033FE1CB070BDFFF7E9
:1019C000F7FDA3E7FFF7F4FDEDE7FFF7F1FDD2E741
:1019D000003801400010024000080048600C002060
:1019E00008000240000C00201C0002400D48854603
:1019F000FFF790FE0C480D490D4A002302E0D45831
:101A0000C4500433C4188C42F9D30A4A0A4C002348
:101A100001E013600432A242FBD305F03FFEFFF762
:101A2000ABFDFEE700000220000000205C0A002061
:101A3000A89B0008600A0020C4360020FEE70000D2
:101A400008B5002203211F2001F0AEFD1F2001F088
:101A5000E7FD074803F054FB00F050FF00F002FBE5
:101A600000F0A8FC00F086FCBDE8084000F030B9AA
:101A7000B00B002008B5134801224FF4805102F04A
:101A8000B9FC1148114902680B6842F20F7C01321F
:101A90006345026011D801330B6000F003FB00F0D6
:101AA00015FD00F029FF00F047FCBDE8084005489F
:101AB00000224FF4805102F09DBC054B01221A70A8
:101AC0000023E9E700040048580D0020680D0020BD
:101AD000640D002038B5134C134B14492278186854
:101AE000086000251D6062B900F01EFF00F006FBD3
:101AF00000F002FDBDE838400D484FF4006102F0EF
:101B00007FBC0C4B0C481A78013A18BF01224FF4E5
:101B100000511A7002F06EFC084A257013680133F8
:101B20001360E1E7640D0020580D00205C0D0020DB
:101B300000040048540D002000080048600D0020FB
:101B40002DE9F043DFF808E19EF800200C46A2B131
:101B5000002874D0002C72D03B4904444FF6FF7229
:101B600010F8013B5340DBB2A04231F8133083EA56
:101B70001222F5D11046BDE8F08334494AF2010C37
:101B80004DE04FF420534FF4F0484FF201094FF469
:101B9000A0474AF2010686EA550606F00106002E25
:101BA00018BF4F4687EA950718BF4346FE0744BF54
:101BB00083EA0C039BB283EAD506F707C3F34F030E
:101BC00048BF83EA0C0383EA1516F6074FEA53036E
:101BD00044BF83EA0C039BB283EA5516F7074FEA2A
:101BE000530344BF83EA0C039BB283EA9516F607BE
:101BF0004FEA530344BF83EA0C039BB283EAD51533
:101C0000ED074FEA530348BF83EA0C0302F10102D8
:101C100048BF9BB2B2F5807F21F8023F0AD012F094
:101C2000010695B2ADD1334637464FF4A0484AF28B
:101C30000109B0E701238EF8003000288AD14FF661
:101C4000FF721046BDE8F0836C0D00206A0D002085
:101C50006C0F002038B50B4654001546014622464D
:101C6000184605F042FD7DB10146431C221891F84B
:101C700001C013F8010C03F801CC0231914203F1C9
:101C8000020301F8010CF2D138BD00BF30B5CDB070
:101C9000144605464FF4967201A805F026FD620031
:101CA0007CB102F598710DEB010E01ABAEF5967E9D
:101CB000197893F801C083F800C059700233734556
:101CC000F6D101A9284605F010FD4DB030BD00BF8A
:101CD00002490348052201F017BB00BF700F002026
:101CE000DC0A002004289ABF024B33F820000020B1
:101CF000704700BF700F002008B5074BB3F86804A9
:101D0000FEF738FC00224FF07C53FEF79DFCFEF7F7
:101D100073FF00EE100A08BD7015002008B5074BD0
:101D2000B3F88802FEF726FC00224FF07C53FEF742
:101D30008BFCFEF761FF00EE100A08BD7015002055
:101D4000054BDFED067AB3F80A3200EE103AB8EE32
:101D5000400A30EE670A70477015002000002042EC
:101D600008B50F4BB3F8020807EE900AF8EE677A51
:101D700017EE900AFEF710FC07A3D3E90023FEF745
:101D800063FC084B0022FEF7A7FAFEF735FF00EED2
:101D9000100A08BDAFF300807B14AE47E17A843FA0
:101DA0007015002000004440034BB3F8043800EEE7
:101DB000103ABBEECE0A70477015002008B50C4BE8
:101DC000B3F81C0207EE900AF8EE677A17EE900A55
:101DD000FEF7E2FB074B0022FEF736FC064B002223
:101DE000FEF77AFAFEF708FF00EE100A08BD00BF02
:101DF000701500200000E03F00005040054BDFED73
:101E0000067AB3F81E3200EE103AB8EE400A30EE11
:101E1000670A70477015002000002042CB0710B5FC
:101E200012D4144B1B68B3F5FA6F0CD9124A13780D
:101E3000062B1AD0092B06D10A241049104B147016
:101E400003C983E8030010BD0C4B0A4A4021044635
:101E500001F0D2FF58B900220121204602F06EF8AD
:101E60000028DED0FFF7A4FBDBE70724E5E7FFF758
:101E70009FFBF0E7B810002013110020B0100020E5
:101E8000A8100020F0B4484A82B051780023019392
:101E90001378412914BF033B023BDBB203F1FF334C
:101EA00014BF5168D2F80310032B7AD8DFE803F08F
:101EB000635F1B0209BA01913C490B78072B20D0C4
:101EC0000A2B51D13A483B4C037804EBC30CBCF8C5
:101ED0000640002C57D0019AFF2A36D9364A019D78
:101EE00022F8145031E00B0401F47F4003F47F0327
:101EF000C1F3074103430B432C4901930B78072B94
:101F0000DED12E4C2E4D237805EBC300C08800286F
:101F100034D19278DDF804C00198274E02F580771D
:101F200002F50072000C26F817C026F812005A1CA1
:101F3000D2B21F482270172A037804D035F8322015
:101F4000B2F5E06F01D2002222700133DBB205222C
:101F5000172B03700A7005D0164A32F83330B3F5E8
:101F6000E06F01D20023037002B0F0BC704749BAA1
:101F700089B20191A0E7C9B201919DE70E4A019E85
:101F800022F81060D3E79278019F019C0A4D02F578
:101F9000807602F50072240C25F8167025F81240A0
:101FA000D3E70023019387E7A81000201311002036
:101FB000A41000200C00002070150020A5100020A7
:101FC000C400002010B51F4B1F4C19781F4B34F86C
:101FD0003100186000220820C3E90122C3E904226D
:101FE000C3E90622D8601A62194B1A481B784FF0D1
:101FF000FF32052BC0E9002204D0082B19D1164A64
:10200000164C117804EBC102C900528842700431A9
:10201000625AFF2A0ED802220270635A83700D4A58
:102020000A490F4801F086FE18B1BDE81040FFF7DD
:10203000BFBA10BD03220270625A120A8270635A3C
:10204000C370ECE7A5100020C4000020E8100020B9
:1020500013110020E0100020A41000200C0000202C
:10206000480B002008B50C4B0C480021FF221970CA
:1020700005F0BBFA0A4801F045FE30B908480022D5
:10208000012101F05BFF18B908BDFFF791FAF5E7F0
:10209000BDE80840FFF78CBA12110020880F00201D
:1020A000480B0020104911480B88027801330B803F
:1020B000092A0BD8DFE802F00F0A050A0A0A050A06
:1020C0000A050B4A136813B1013B13607047094BB3
:1020D00001221A707047084A138813B1013B13801C
:1020E0007047042303707047101100201311002063
:1020F00004000020840F00200800002038B5764C32
:102100002378013B092B11D8DFE803F0A1158928BA
:1021100063681105C211714B71491888A1F8020654
:1021200000221A80FFF74EFF0923237038BDBDE857
:102130003840FFF7A7BE6B4B1A787AB16A4A6B49F1
:10214000002018704FF47A730B6013782033DBB2E1
:10215000602B89BF9623137010700B60644B654829
:1021600003F1B8014FF0010C05E0FF2A98BF00F819
:1021700002C08B4203D09A880833002AF5D15E4B07
:102180004FF0010C03F1B80105E0FF2A98BF00F8F9
:1021900002C0994203D09A880833002AF5D1554BE2
:1021A000002103E00131FF2900F0938013F8012B97
:1021B000002AF7D05148524B524A017003F5807003
:1021C00013F8011F22F8021F8342F9D1052323705F
:1021D00038BDFFF7F7FE0623237038BD414A137858
:1021E000002BA3D04849424D0B7840480133DBB265
:1021F0004FF0000E82F800E035F833200B70962582
:102200000560052020700AB1172B03D9002208238E
:102210000A7023703D4A13880133138038BD324958
:102220003B4A0B7852683B484FEA531C203312BAA2
:10223000DBB240F82C20602B4FF001020B702270B3
:102240007FF674AF002204230A70237038BD324930
:102250003248002340F2DF72C1E90133C1E904339F
:10226000C1E906330A600B6208224FF4817320F83B
:10227000033CCA601C4B4FF0FF3202600271C21E69
:102280001B782748937001F055FD0223237038BD59
:10229000144B1A78002A3FF449AF224A1349002010
:1022A000187013780133DBB296200860172B4FF0BB
:1022B00005012170137005D00F4931F83330B3F5A3
:1022C000E06F01D200231370174A13880133138083
:1022D00038BD0B23237038BD1311002010110020CE
:1022E00070150020840F002012110020040000202F
:1022F000C4000020880F00200C000020850F002063
:10230000870F00206E150020A51000200E11002060
:10231000B010002088100020E8100020E3100020FA
:10232000480B0020A41000200C110020014B18784D
:10233000704700BF181100200B4B0C491B690A782D
:1023400003F001039A420AD0094802680132B2F54B
:102350007A7F026006D300220B7002607047044B44
:1023600000221A60704700BF0008004818110020C2
:102370001411002070B582B00B49019104230B4861
:102380000B4E0A4D0DEB03024E2104F0CBFA46240E
:1023900004230DEB03024E212846019604F0C2FAF5
:1023A000013CF5D102B070BD8C880C087C01002086
:1023B0002D290D0930B53A4C3A4D83B00421204601
:1023C00004F09AFA322000F031FB04230DEB0302F3
:1023D0004E212046019504F0BDFA322000F026FB84
:1023E00004230DEB03024E212046019504F0B2FABE
:1023F000012000F01BFB04230DEB03024E212046BD
:10240000019504F0A7FA0A2000F010FB04232648E7
:1024100001900DEB03024E21204604F09BFA0A20A6
:1024200000F004FB0423214801900DEB03024E2130
:10243000204604F08FFA052000F0F8FA04231C4827
:1024400001900DEB03024E21204604F083FA052093
:1024500000F0ECFA0423174801900DEB03024E2123
:10246000204604F077FA052000F0E0FA052000F09D
:10247000DDFA0423104801900DEB03024E212046A3
:1024800004F068FA052000F0D1FA04230B4D019501
:102490000DEB03024E21204604F05CFA03B030BD80
:1024A0007C0100203C380C082C280C082C288C8837
:1024B0000C088C880C081C180C086C680C08CCC81C
:1024C000014804F0BDBA00BF7C01002008B504F04B
:1024D000A5FA074A13680133B3F5FA6F01D8136000
:1024E00008BD044B002001211060197008BD00BF19
:1024F000801100207C1100202DE9F04383B0FFF70C
:1025000015FFAB4C0346AB48237004F05FFAAA4BAF
:102510001A78002A00F0058100211970A74BA84DF8
:102520002278A84F93E8030029712860002A00F060
:10253000FB80FFF7E1FB10EE100AFEF72DF80246D4
:102540000B463846A049DFF8A092A04EA04C04F0FC
:10255000E9FFA04B93E803003B686B6089F8041027
:10256000C9F80000FFF720FC10EE100AFEF714F87F
:1025700002460B463846944904F0D4FF964B3A681D
:10258000C9F8042093E8030031713060FFF7D8FBED
:1025900010EE100AFEF700F80B4602468A4938464C
:1025A00004F0C0FF3B6873608C4B93E8030021711B
:1025B0002060FFF7D5FB10EE100AFDF7EDFF024695
:1025C0000B463846804904F0ADFF3B686360844B9E
:1025D000019304230DEB030276484E2104F0A2F987
:1025E0002B78FBB1764DDFF80882724F03F0F001D3
:1025F000002261F307021B01DBB261F30F2263F3D8
:10260000174263F31F62042342EA080C4E210DEBCC
:1026100003023846CDF804C004F084F915F8013FF0
:10262000002BE3D16F4B019304230DEB03026148B0
:102630004E2104F077F999F80030FBB16A4DDFF8CC
:10264000B0815C4F03F0F001002261F307021B012F
:10265000DBB261F30F2263F3174263F31F620423BB
:1026600042EA080C4E210DEB03023846CDF804C0B7
:1026700004F058F915F8013F002BE3D104235B4A1D
:1026800001924C480DEB03024E2104F04BF93378D4
:10269000F3B14E4D564F474E03F0F001002261F367
:1026A00007021B01DBB261F30F2263F3174263F3EE
:1026B0001F62042342EA070C4E210DEB0302304651
:1026C000CDF804C004F02EF915F8013F002BE3D13A
:1026D0000423484901910DEB030236484E2104F0D2
:1026E00021F92378EBB13A4D414F324E03F0F0011E
:1026F000002261F307021B01DBB261F30F2263F3D7
:10270000174263F31F62042342EA07044E210DEBD4
:1027100003023046019404F005F915F8013F002B3F
:10272000E4D103B0BDE8F083FFF7E6FA10EE100A3B
:10273000FDF732FF02460B4638462349DFF8A890E2
:10274000224E234C04F0EEFE2B4B93E803003B6833
:102750006B6089F80410C9F80000FFF7DFFA10EE8B
:10276000100AFDF719FF02460B463846164904F0D9
:10277000D9FE224B3A68C9F8042093E8030031716E
:102780003060FFF71BFB10EE100AFDF705FF024655
:102790000B4638460C4904F0C5FE3B687360184B85
:1027A00093E8030021712060FFF728FB03E700BFD7
:1027B000191100207C0100207C110020B097000836
:1027C000741100201C110020B8970008641100202B
:1027D0005C110020D4970008DC970008E4970008FB
:1027E0008C880C088C888C886C110020CCC80C0854
:1027F0000D090D09CCC88C88BC970008C497000847
:10280000CC9700082DE9F043DFF8D480314CB8F8BC
:10281000042098F80130B8F80200637052BA92B2FE
:102820005700BDB2E91C40BA1FFA81F9062B4FF0E0
:102830006901CDB086B221703AD026D8033B012B76
:1028400010D825485FFA82F800EB4600424601A9FD
:10285000FFF700FA4FEA4802A27001A93A46E01CCD
:1028600004F043FF494605354F464E1CADB21948AA
:10287000FFF766F9E055000AA055164917482A46A1
:1028800002F0FAFF4DB0BDE8F083102BEAD11248F8
:1028900008F1070100EB4600D2B2FFF7F7F906276F
:1028A000D8F80230C4F80230082507263946DEE79A
:1028B00098E8030020600848A18000EB460008F17A
:1028C000040101220627FFF7E1F90825072639460A
:1028D000CDE700BF8811002070150020C00C00203B
:1028E0007C1300200248034B018001221A707047BC
:1028F0008611002084110020704700BF08B54FF4F6
:1029000000520021054804F070FEBDE8084004496B
:1029100004484FF4967203F0CFBE00BF701500203C
:102920007C130020C00C002010B5184B1A782AB177
:10293000174A12780021692A197024D014491548C1
:10294000154C4FF4967203F0B7FE0020FFF7CAF95A
:1029500003460120A4F8003AFFF7C4F90346022019
:10296000A4F8023AFFF7BEF903460320A4F8043A9C
:10297000FFF7B8F903460420A4F8063AFFF7B2F9C6
:10298000A4F8080A10BDFFF73DFFD7E78411002027
:102990007C130020C00C00207015002038B50F4BB0
:1029A0001B680BB9012038BD0D494FF47A720546FA
:1029B000B2FBF3F30868B0FBF3F000F03FFE04460F
:1029C0000028EFD10F2DEDD8024629464FF0FF30F9
:1029D00000F0EAFD034B20461D6038BD880800204A
:1029E000000000208C08002010B5032000F0CAFD74
:1029F0000F20FFF7D3FF10B10124204610BD04467D
:102A0000FEF7D8FD204610BD034A04491368096843
:102A10000B441360704700BF703500208808002009
:102A2000014B1868704700BF7035002038B5044668
:102A3000FFF7F6FF631C054602D0044B1B681C44DD
:102A4000FFF7EEFF401BA042FAD338BD88080020F4
:102A500030B583B00023019300285CD0C56D0446D7
:102A6000002D00F0CC80226893689D0005D5936806
:102A700023F0204323F03F0393609368D80019D4D8
:102A8000784B79481B6891689B09A0FB030321F0F0
:102A900010419B0921F03F0101335B0041F080515F
:102AA00091600193019B2BB1019B013B0193019B21
:102AB000002BF9D19368D90030D4E36D43F01003B3
:102AC000E365236E012003432366936813F0040F2C
:102AD000E36D1CD1DB061AD4E36D23F4817343F05C
:102AE0000203E3659368DD0732D4B2F1A04F17D03B
:102AF0005E4B9A4214D05E495E4B89689B680B43DB
:102B00005D4989680B43D90722D45C491AE0E36D1B
:102B100043F01003E365012003B030BD0020D4E78B
:102B20004FF0A041514B8D689968C90710D4ED074B
:102B30000ED4B2F1A04F00F092805049504D9A420D
:102B400008BF29468B68656823F47C132B438B6090
:102B5000E568E36B94F824102B43A5682B43657F4D
:102B6000012943EA453343EA01434ED0E16A21B1EA
:102B7000256B01F4787129430B43D56841492940FD
:102B80001943D1601369616B23F040630B431361F8
:102B900093681B0724D4D16894F83830257F21F43A
:102BA00080415B0021F0020143EA85330B43216938
:102BB000D3601369002935D043F480331361D2F810
:102BC000C03023F47F5323F03F030B43C2F8C030DF
:102BD00094F84030012B31D0136923F001031361C5
:102BE0006369012B16D0136B23F00F031363E36D9E
:102BF00023F0030343F00103E36503B030BDFEF7A8
:102C000051FA256684F858502DE7A16A013943EA44
:102C10004143ABE7116B236A21F00F01013B0B43EA
:102C20001363E4E723F480331361D2F8C03023F454
:102C30007F5323F03F03C2F8C030C9E71169636CCA
:102C4000A56C21F4FF6121F004012B430B43E16CDF
:102C50000B43216D0B4343F001031361C0E70849A7
:102C600070E700BF00000020632D3E05000100500A
:102C700000040050000500500006005000070050FE
:102C8000000300500740F0FF704700BF704700BFCF
:102C900008B5806AFFF7FAFF08BD00BF704700BFA4
:102CA000836ADA6D12F0500F10B5DA6D1DD1196814
:102CB00042F40072DA650A6812F0080FCA681BD085
:102CC00012F4406F0DD1CA6894040AD4DA6D22F46C
:102CD0008072DA65DA6DD10403D4DA6D42F0010254
:102CE000DA651846FFF7D0FF10BDD2060AD45B6D37
:102CF000BDE810405B6B18479007E7D51846FFF713
:102D0000C3FFF1E71846FFF7C9FF10BD806A08B599
:102D1000C36D43F04003C365036E43F004030366D1
:102D2000FFF7BCFF08BD00BF2DE9F04190F8582027
:102D300082B00346012A4FF00000019000F01E818E
:102D40001A68012083F858009468640767D44868BB
:102D50004FEA901E00F01F0C0EF00C0E086802F1F6
:102D60003004C0F3846054F80E501F2600FA0CF0B3
:102D700006FA0CFC25EA0C0C40EA0C0044F80E00A4
:102D80009068470755D5906808689468E50712D49D
:102D9000CE68BA4CD2F8B05006F01807FC40C0F329
:102DA0001207044025EA07052C43C2F8B040B44C92
:102DB000A64200F09080B34908422ED0B2F1A04F55
:102DC00000F0DA80B04DB149B14CAA4208BF2146AB
:102DD000B04C8968A04201F0E07500F0D380AE4CA1
:102DE000A04200F0CF80AD4CA04200F0F480AC4C8B
:102DF000A04212D1490210D4A3498A420DD0A4485E
:102E000001F5C061B2F1A04F08BF01468A6822F007
:102E1000E0722A4342F480028A60002003E0DA6D07
:102E200042F02002DA65002283F8582002B0BDE8A3
:102E3000F081946808682607A7D48D68C0F304560B
:102E40000724C00DB440B5F1004F00F004006FEA54
:102E5000040402F1140700F02D81B5403E583440BF
:102E60002C433C50506920F000405061D1E904757A
:102E70000868D668042F02F16004844600F0D6800A
:102E8000C6F3C106760054F827C0B540854E00F061
:102E9000F8400CEA06060643354345F0004544F881
:102EA00027500D698E6954F8250020F0807030435A
:102EB00044F825000E690D7F54F82600A5F10105A0
:102EC000B5FA85F56D0920F0007040EA456044F8D8
:102ED0002600086859E7002F00F0928090FAA0F4CD
:102EE000002C00F0EF80B4FA84F4013404F01F04E5
:102EF000092C40F2E78090FAA0F4002C00F08681C3
:102F0000B4FA84F40134A40604F0F84490FAA0F56D
:102F1000002D00F08081B5FA85F5013505F01F051B
:102F2000012606FA05F52C4390FAA0F0002800F0DF
:102F30007081B0FA80F0451C05F01F0503206FF08A
:102F40001D0610FB0560000540F000702043C50D14
:102F50008C6805F0040502F11406C0F3045004FA6D
:102F600000F74FF0070C74590CFA00F024EA000047
:102F70003843705108681EE7454929E7022002B02E
:102F8000BDE8F0810C023FF548AFB2F1A04F4BD045
:102F900045498A427FF441AF3C48444A444C126858
:102FA00081689209A4FB0242920921F0E07101328A
:102FB000294302EB4202920041F400018160019238
:102FC000019A002A3FF429AF019A013A0192019A2D
:102FD000002AF9D121E7C8013FF51FAFB2F1A04F98
:102FE00000F00A81284C29492948A24208BF01461D
:102FF0008A6822F0E0722A4342F080728A600CE70D
:10300000800E013000F01F050124800600F0F8401A
:10301000AC40092D44EA000405EB450077D91E3881
:10302000000540F0007091E71948B6E7156E156E7F
:10303000C0F31206C5F38465002E6AD1C0F3846024
:10304000854200F09780556E556EC5F384658542C4
:1030500000F0A280A568A56804F10807C5F384659F
:10306000854200F0AE80E568E56804F10C06C5F322
:103070008464A04200F0BA80604686E6FFFF070045
:1030800000007F4000000880000100500007005051
:1030900000030050000021C31000C090000052C780
:1030A000000084CB00F0FF03000600500000002069
:1030B000632D3E053D582C403C50506940F0004087
:1030C0005061D3E690FAA0F4002C00F09980B4FA95
:1030D00084F40134A40604F0F84490FAA0F5002D1D
:1030E00000F08C80B5FA85F5013505F01F05012645
:1030F00006FA05F52C4390FAA0F0002800F0838032
:10310000B0FA80F0013000F01F0000EB4000000535
:103110001CE790FAA0F61EB1B6FA86F6B54229D0A1
:10312000556E556EC5F384659CFAACF604F108073C
:10313000BE461EB1B6FA86F6AE422FD0A568A56887
:10314000C5F384659CFAACFE04F10C06B046BEF1F2
:10315000000F03D0BEFA8EFEAE4534D0E568E468B9
:10316000C4F384649CFAACF5002D3FF40EAEB5FABE
:1031700085F07EE7106E20F000401066D1F800C0A8
:10318000506E556ECCF31206C5F384656046002E72
:10319000CAD1CCF384605AE704F1080E506E20F0D7
:1031A00000405066D1F800C0A068A568CCF31206B4
:1031B0007746C5F384656046002EC3D1CCF38460A6
:1031C0004EE704F10C08386820F000403860D1F870
:1031D00000C0E068E468CCF312054646C4F384649A
:1031E0006046002DBED1CCF3846042E7306820F009
:1031F000004030600868C8E50849F9E6022579E72B
:103200004FF0806469E74FF440109FE64FF0806410
:103210007CE603489AE6022585E600BF00030050DD
:10322000000050FE70B582B00022036801929A68D7
:10323000D20734D499682D4A1142044632D19A6893
:1032400022F0004222F03F0242F00102B3F1A04F0F
:103250009A6048D02648274A2749834208BF0A4631
:1032600093681B0229D4FFF7DBFB23681A68D60793
:10327000054614D4214E9A68D00704D49A68324087
:1032800042F001029A60FFF7CBFB431B022B23683D
:1032900002D91A68D10705D51A68D207EBD50020E4
:1032A00002B070BDE36D43F01003E365236E0120AF
:1032B00043F00103236602B070BD114B114A1B6835
:1032C0009B09A2FB03239B09013303EB43039B00F0
:1032D0000193019B002BC6D0019B013B0193019BF5
:1032E000002BF9D1BFE7044ABAE700BF3F000080D6
:1032F000000100500007005000030050C0FFFF7F96
:1033000000000020632D3E052DE9F0410568B5F170
:10331000A04F04460E46174622D0394A39483A4B48
:10332000954208BF18468268AB685B0715D494F8CD
:103330005830012B11D0354B01209D4202F01F085F
:1033400084F858000ED040F2212323FA08F30340FA
:1033500008D184F85830BDE8F0810220BDE8F08142
:103360002948E0E72046FFF75DFF00283FD1E36DE5
:10337000216823F4706323F0010343F48073E36551
:103380001F4B994238D003F58063994234D0E36DE6
:1033900023F48013E365E36D606D1D4D13F48053DA
:1033A0001CBF236E23F006032366C562194D056317
:1033B000194D45631C250D60002584F858504D6853
:1033C00045F010054D60CD6845F001053B4632469D
:1033D000CD60403100F0DEF92268936823F00043AD
:1033E00023F03F0343F004039360BDE8F081002322
:1033F00084F85830BDE8F081B8F1000FCBD1C6E7B2
:10340000000100500007005000030050000600506B
:10341000A12C0008912C00080D2D000870B490F824
:1034200058200E68012A9DB057D002680346002438
:103430000120B2F1A04F189483F8580019940BD0D2
:103440004A4DAA4247D0DA6D83F8584042F0200234
:10345000DA651DB070BC70474548806840070BD5E1
:103460009268DA6D42F020020120DA65002283F8CA
:1034700058201DB070BC704790684007F1D4B2F17D
:10348000A04F2ED03A4882422BD0002E5AD0394835
:103490004C68826822F46042224393F8384042EA42
:1034A00044328260314A344C956802F580729268E9
:1034B000A468E4070DD42A43D24302F0010242B1CA
:1034C00084688A6824F47161324321F00F010A4351
:1034D00082600020CAE72948BFE702201DB070BC07
:1034E0007047B6B126484C68826822F46042224395
:1034F00093F8384042EA443282601D484FF0A042BF
:1035000092688068C007E4D4D2431D4802F00102EB
:10351000D5E71B498A6822F460428A6014494FF05B
:10352000A04292688968CD07D3D4D243144902F0EF
:103530000102002ACDD08A6822F4716222F00F02C3
:103540008A60C6E70B49094C8A6822F460428A60A7
:10355000A468D0F8082400F5A0608068C507B8D436
:103560002243D24302F00102E3E700BF000400500F
:1035700000010050000700500006005000050050F8
:10358000000300500749CA6803024FF6FF0003F426
:10359000E0630240134343F0BF6343F40033CB6066
:1035A000704700BF00ED00E01B4BDB68C3F3022354
:1035B00000B5C3F1070EBEF1040F03F1040C28BFE0
:1035C0004FF0040EBCF1060F1CD9A3F1030C4FF011
:1035D000FF3303FA0CF322EA03024FF0FF3303FA3E
:1035E0000EF321EA030303FA0CF313431B01002833
:1035F000DBB20ADB00F1604000F5614080F8003387
:103600005DF804FB00229446E7E7044A00F00F004F
:10361000024413765DF804FB00ED00E0FCEC00E0F2
:10362000002807DB044A4109012300F01F00834002
:1036300042F82130704700BF00E100E00138B0F1EE
:10364000807F01D30120704710B44FF0E023074C76
:1036500058614FF0F00C84F823C000220721104677
:103660009A615DF8044B1961704700BF00ED00E0FE
:10367000002876D0F0B43C4A0468944203465CD9F2
:103680003A493B4A3B482144A2FB012109098900F0
:1036900002229D6883F82520DA68354E364FC3E94B
:1036A000100118692A43024358690243986902438A
:1036B000206820F4FF4CD8690243E0B20838A6FB2A
:1036C00000601E6A2CF0700C324342EA0C02226049
:1036D000254E2A4AC0F30410B44298BF3A4606F277
:1036E0007946012404FA00F0DE64B5F5804F01EB61
:1036F000020618659E644FEA910127D05E68F5B214
:10370000013E032E42F82150C7F8840024D81C4AF9
:103710001C482A449200013DAC400021C3E9152019
:10372000DC651160184A546400200122D86383F8D4
:10373000240083F82520F0BC704714490C4A144833
:103740002144A2FB012109098900A1E700245C6052
:1037500042F82140C7F884000022C3E91522DA6547
:10376000E2E70120704700BF07040240F8FBFDBFFD
:10377000CDCCCCCC0004024000080240200802401E
:103780003F8200104009024000090240F8FFFDBFDF
:1037900000000240F0B490F82440012C09D001242C
:1037A00080F8244090F82540012C05D0002380F8B3
:1037B00024300220F0BC7047022480F82540002409
:1037C000C4630468C66C256825F001052560D0E94E
:1037D0001475776015B1D0E916677760466C076C91
:1037E00006F01F0C012606FA0CF67E606360836803
:1037F000102B036B0BBFA260A160E160E260BBB164
:10380000236843F00E032360836C1A68D20303D548
:103810001A6842F480721A601DB12B6843F48073F9
:103820002B60236843F0010300202360F0BC704745
:10383000236823F004032360236843F00A03236012
:10384000E2E700BF90F82520022A034609D00422AF
:10385000C26301210022012083F8251083F824206F
:1038600070470268596C30B4846C10681D6C20F08D
:103870000E001060206820F480702060106820F036
:103880000100106001F01F0101228A40D3E91441B8
:10389000D86C6A60446031B10A68D3E9160422F436
:1038A00080720A6044600121002283F8251083F8A9
:1038B0002420002030BC704738B590F82530022B0A
:1038C00009D0012304210022C16380F8242080F85C
:1038D0002530184638BD0368846C1968426C056C45
:1038E00021F00E011960196821F0010119602368A7
:1038F000C16C23F48073236002F01F020123934004
:10390000D0E914426B604C6032B11368D0E91614F0
:1039100023F4807313604C60836B0121002280F8D4
:10392000251080F8242003B19847002038BD00BF3F
:1039300070B4436C066C056831682C6803F01F0393
:1039400004229A400A420ED014F0040F0BD02B68C8
:103950009B0603D42B6823F004032B60036B726077
:10396000CBB170BC184702229A400A4215D014F01D
:10397000020F12D02B68990606D42B6823F00A0395
:103980002B60012380F82530C36A7260002180F823
:103990002410002BE5D170BC704708229A400A42DF
:1039A000F9D02207F7D52A68416B22F00E022A606F
:1039B000012202FA03F300247360C26380F82440FA
:1039C00080F825200029E6D070BC0847002800F0C8
:1039D0001C812DE9F04190F85C30044603F0FF02B1
:1039E000002B73D02268936923F010039361FFF7D3
:1039F00017F8054604E0FFF713F8401B0A285BD8C8
:103A000023689A691207F6D49A6942F001029A6112
:103A1000FFF706F8054604E0FFF702F8401B0A2806
:103A20004AD821688B69DB07F6D58B697F4A43F05A
:103A3000020391428B6100F0D580237C012B8B69BE
:103A40000CBF23F0400343F040038B61637C012BE8
:103A50008B690CBF43F4804323F480438B61A37CC8
:103A6000012B8B690CBF23F4805343F480538B618B
:103A70008B69A068E26823F4407303438B618B6910
:103A800023F0A4038B610B69012A23F010030B615F
:103A900021D022B3022A8B6900F0C48043F0800356
:103AA0008B610B69032A43F010030B6117D18B69FB
:103AB00043F020038B6112E0236E032243F00103E5
:103AC000236684F85C200120BDE8F08180F85D2049
:103AD000FDF7DEFB86E78B6943F004038B61D4E9D5
:103AE0000623013B013A1B0243EA4263226A013A80
:103AF00013436269013A43EA0243B0F5407FCB6168
:103B00000ED1D4E90B03A26A013B01381B01013A33
:103B100043EA00231343626A013A43EA0243CB605B
:103B2000D1F8C030E06B424A03439142C1F8C03043
:103B30006DD04048404B414E414D424F814202F5CD
:103B40007D5202F1100208BF1A46A3F1D80308BF44
:103B5000984600F56250A3F1180300F1300008BF49
:103B60001E46A3F1D8030CBF1F468446A3F1D80319
:103B7000A0F140000CBF9C468646A3F1400300F52F
:103B8000C6600CBF9E46A846A3F5E26308BF034685
:103B9000D1F88000656B236420F4F81040EA0540FA
:103BA000C1F88000D1F88000A56BC4F844E020F093
:103BB000706040EA0560C1F88000591C9142C4E978
:103BC00012C72665C4F8548011D9002143F8041B9C
:103BD0009342FBD300200123206684F85C30A0656B
:103BE000BDE8F081184B6268C3F8002525E7013A6B
:103BF000D21A92080132520803EBC20200200021BF
:103C0000E3E802019A42FBD1E4E7012070470F4A42
:103C1000DFF848800E4E0F4FDFF844C0DFF844E075
:103C20000D4BB5E743F020038B6158E7006400407B
:103C300000680040006C0040F0AD004060A600400D
:103C400078A6004088A5004000600040A0AA00407F
:103C5000B0A90040D8A8004050A70040C8A9004023
:103C600000A80040C0A7004090F85C20013A012A5B
:103C7000034605D9026E42F0020201201A6670471F
:103C800070B4D1E902250E6808694C694968920749
:103C900056B942EAC56222431B6C42EA004270BC3C
:103CA000002043F8212070475B6C40EA457043F8E0
:103CB000310003EBC1032243002070BC5A607047FF
:103CC000844690F85C00012807D0DCF8603043F0AF
:103CD00004030120CCF86030704710B40198DCF880
:103CE000004040EA4303D4F8800043EA820242EAFB
:103CF000011120F03F030B43C4F8803000205DF831
:103D0000044B704790F85C20012A034605D0026EF0
:103D100042F0040201201A6670470068022283F80C
:103D20005C208269002122F0010282610846196646
:103D3000704700BFF0B590F85C30022B86460BD17F
:103D40000568D5F8C43013F4001C0BD0036E43F49F
:103D5000007303660120F0BD036E43F008030366A1
:103D60000120F0BDD5F8C4604B680F6988680C6805
:103D7000C6F30146002B37D1074347EA8447D1E910
:103D8000060303434869CC680343086A43EA0063B7
:103D900043EA0443DEF8540006EBC60440F83470EE
:103DA00000EBC400134C4360CB68E35CA3B1937891
:103DB000D7781B0443EA076317783B43577843EAF5
:103DC000072300EB0C070CF1040CBB60CB68E35C31
:103DD0009C4502F10402EAD30123B340C5F8CC307C
:103DE0000020CEF85830F0BD2743074347F0804706
:103DF000C5E700BFEC9700082DE9F04190F85C4062
:103E0000022C0DD14029056810D0D5F8984027071D
:103E10006FD1036E43F4807303660120BDE8F08127
:103E2000036E43F0080303660120F7E7D5F89040DE
:103E30002707EED0D5F89060C6F30064F60148BFBE
:103E4000D5F88040D5F8907048BFC4F34024C7F33C
:103E5000012707EB0408846C08EBC80604EBC604D2
:103E6000266806F080465660002E5ED12668C6F3AE
:103E70008A461660266806F000569660266806F0A8
:103E800000461661A688D661B4F806C00CF00F0C87
:103E9000C2F80CC0666806F480165661666806F4BF
:103EA00000169661E67906F07F061662224E676874
:103EB00016F80CE04FEAD77CC2F824C0BEF1000F20
:103EC00010D0013B04F1070EF4461EF8015F03F821
:103ED000015FD568ACF1060C755DACEB040C654573
:103EE000F2D80568402924D0C5F89C800020BDE8A0
:103EF000F081D5F89860C6F30064F60148BFD5F8A4
:103F00008040D5F8987048BFC4F30024C7F3012758
:103F100007EB0408C46C08EBC80604EBC60426686B
:103F200006F080465660002EA0D0266826F0604637
:103F30009FE7C5F89480D9E7EC970008034690F80E
:103F40005C000138012805D91A6E42F002020120F6
:103F50001A6670471B6870B411F00705986D01F080
:103F6000380409D0C60707D4DD6D45F00105DD65CD
:103F700054B184072FD407E004B386071ED4DE6D46
:103F800046F00106DE6525BB11F4E07F01D046074F
:103F900021D411F4F05F01D005071CD411F4604F57
:103FA00001D0C40617D411F4403F01D0860612D4C4
:103FB00011F47C0F13D045060DD410E011F4E07F0E
:103FC00021D046071FD4DE6D46F00106DE65002DC8
:103FD000CED0C507CCD5D86D40F00200D8650C0610
:103FE00004D5D3F8DC001043C3F8DC00C80504D5C1
:103FF000D3F8E0000243C3F8E0205A6D0A430020E2
:1040000070BC5A65704711F4F05F01D00607DAD52D
:1040100011F4604F01D0C606D5D511F4403F01D050
:104020008606D0D511F47C0FD1D04606CBD5002D15
:104030009ED0CEE7704700BF704700BF704700BFFB
:10404000704700BF704700BF704700BF704700BF98
:10405000704700BF704700BF704700BF2DE9F84FA1
:1040600003681A6D596D02EA010A1A6D596D02EA68
:1040700001091A6D596D1E6D02EA01085A6D1F6D16
:1040800016405A6DD3F854B01D6D174069060446AA
:104090000AF4E05A09F0070908F0380806F4710636
:1040A00007F4602702D51BF0400F72D1EA0502D554
:1040B0001BF4807F5DD1BAF1000F4AD1B9F1000F36
:1040C00035D1B8F1000F3CD1AB0502D51BF4007F10
:1040D00074D1280602D51BF0800F77D1A90402D530
:1040E0001BF4005F5AD12A0402D51BF4004F5DD1A6
:1040F0006B040AD51BF4804F07D023684FF480422D
:104100001A65236E43F0800323664FB926B12368F6
:104110001E65236E33432366236E2BBBBDE8F88FE9
:10412000236839461F652046FFF796FFEEE72368B0
:104130004946C3F850902046FDF770FEB8F1000FD5
:10414000C2D023684146C3F850802046FFF774FF71
:10415000BAE723685146C3F850A02046FFF76AFF2C
:10416000B9F1000FADD0E2E72046FFF773FFBDE8DD
:10417000F88F2368D3F8D810D3F8E0204FF480707C
:10418000186511402046FFF75DFFBAF1000F95D08A
:10419000DFE740221A65FFF75BFF87E723684FF4EC
:1041A00000521A652046FFF74FFF9CE723684FF443
:1041B00000421A652046FFF749FF99E723684FF44C
:1041C00000721A652046FFF739FF82E72368D3F8AB
:1041D000D410D3F8DC208020186511402046FFF76A
:1041E0002FFF7BE72DE9F04F0C6885B0002C00F025
:1041F000898000234FF0010B0BFA03FE1EEA040A2C
:104200007BD04D6805F003024FEA430C032602F110
:10421000FF3806FA0CF7B8F1010F6FEA070774D9F7
:10422000032A40F0B08002FA0CF2D0F800C00CEA89
:1042300007073A4315F4403F02605ED0664F3A6E7E
:1042400042F001023A663A6E02F001020392039ACA
:1042500023F0030202F1804202F5803203F0030CE6
:1042600097684FEA8C0C0F2606FA0CFEB0F1904FBF
:1042700027EA0E071DD0594EB04200F09780584EE5
:10428000B04200F09A80DFF860E1704500F087806E
:10429000DFF858E1704500F09780DFF854E1704591
:1042A0000CBF4FF0050E4FF0060E0EFA0CFC47EA5D
:1042B0000C0797604B4A9268EE026FEA0A07494E74
:1042C00054BF3A404AEA0202B260F268AE02454E7A
:1042D00054BF3A404AEA0202F2607268AE03414EAD
:1042E00054BF3A404AEA020272603268ED033D4D23
:1042F00054BF3A404AEA02022A60013334FA03F218
:104300007FF47AAF05B0BDE8F08FD0F80890CE68A2
:1043100009EA070906FA0CF848EA0908C0F8088013
:10432000D0F804808E6828EA0E08C5F3001E0EFA45
:1043300003FE4EEA080EC0F804E0D0F80C8006FA3E
:104340000CFE08EA07084EEA080E022AC0F80CE044
:104350007FF469AF0E694FEAD30803F0070E00EB54
:1043600088084FEA8E0E06FA0EF6D8F820900196CD
:104370000F2606FA0EFE019E29EA0E0946EA090EEC
:10438000C8F820E04FE7D0F80C808E6808EA0708EC
:1043900006FA0CFE4EEA080EC0F80CE043E74FF0B8
:1043A000030E0EFA0CFC47EA0C0782E74FF0010EF1
:1043B0000EFA0CFC47EA0C077BE74FF0020E0EFAF0
:1043C0000CFC47EA0C0774E74FF0040E0EFA0CFCE5
:1043D00047EA0C076DE700BF0010024000040048E8
:1043E0000008004800040140000C0048001000488C
:1043F000001400480AB1816170478162704700BFB4
:10440000436901EA030221EA030141EA02418161B1
:10441000704700BF354A136860B903F4C063B3F551
:10442000806FD2F880301BD023F48073C2F88030C4
:1044300000207047B0F5007F06D023F4C06343F43A
:10444000806313600020704703F4C063B3F5806F8E
:10445000D2F8803029D043F48073C2F88030F1E77D
:1044600023F48073C2F8803013682148214923F473
:10447000C06343F4007313600368322000FB03F34E
:104480005069A1FB03139B0C400503F1010306D502
:1044900000E023B15169490503F1FF33F9D4134B0F
:1044A0005B695B05CED50320704743F48073C2F887
:1044B000803013680E480F4923F4C06343F400733F
:1044C00013600368322000FB03F35069A1FB031360
:1044D0009B0C400503F10103E1D501E0002BDED088
:1044E0005169490503F1FF33D9D5F7E70070004062
:1044F0000000002083DE1B43024A936843F480439C
:104500009360704700700040002800F0BD812DE9E5
:10451000F0410368D90782B0044612D5A6498A68DB
:10452000C96802F00C020C2A00F0D080082A40F082
:10453000D280A14A1268920303D56268002A00F073
:1045400037819A0722D59C4A9368D26803F00C03FE
:104550000C2B00F0F880042B40F0FA80964B1B687F
:104560005B0503D5E368002B00F02281924A2069A5
:104570005368924923F0FE4343EA0063536008689E
:10458000FEF70CFA002840F0138123681A0719D5AA
:104590006369894D002B00F0C280D5F8943043F058
:1045A0000103C5F89430FEF73BFA064605E0FEF736
:1045B00037FA801B022800F21781D5F894309B0748
:1045C000F5D523685D0741D57B4B9A6DD00000F18E
:1045D0000F819A6D42F080529A659B6D03F0805373
:1045E0000193019B0125764E3368D90540F12E8158
:1045F000A368012B00F0FE80052B00F084816E4E35
:10460000D6F8902022F00102C6F89020D6F890202B
:1046100022F00402C6F89020002B40F0F280FEF752
:10462000FFF941F28838074605E0FEF7F9F9C01BAB
:10463000404500F2D980D6F890309907F5D425B1DD
:104640005D4A936D23F08053936523689A0618D5CD
:10465000A369594D002B00F0E580D5F8983043F060
:104660000103C5F89830FEF7DBF9064605E0FEF7D2
:10467000D7F9801B022800F2B780D5F898309B0745
:10468000F5D5E369F3B14C4DAA6802F00C020C2A8F
:1046900000F04781022B2B6823F080732B6000F021
:1046A000F580FEF7BDF9044605E0FEF7B9F9001BF9
:1046B000022800F299802B689B01F6D4EA68414BEE
:1046C0001340EB60002002B0BDE8F08101F003016F
:1046D00003293FF42EAF6368B3F5803F55D0B3F59F
:1046E000A02F00F0C480344D2A6822F480322A6062
:1046F0002A6822F480222A60002B4BD1FEF790F921
:10470000064604E0FEF78CF9801B64286CD82B6801
:104710009903F7D423689A077FF538AF13E7D5F8E4
:10472000943023F00103C5F89430FEF779F906467A
:1047300004E0FEF775F9801B022855D8D5F89430AF
:104740009F07F6D43DE702F00302022A3FF406AFCA
:10475000E368194D002B37D02B6843F480732B602E
:10476000FEF75EF9064604E0FEF75AF9801B0228C0
:104770003AD82B685F05F7D56B68226923F0FE43B2
:1047800043EA02636B60236800E70B4A136843F453
:1047900080331360FEF744F9074E054604E0FEF748
:1047A0003FF9401B64281FD833689F03F7D5B1E752
:1047B000012002B0BDE8F081001002408C0800200A
:1047C00000700040FCFFEEFE2B6823F480732B602A
:1047D000FEF726F906462B6859057FF5D6AEFEF79B
:1047E0001FF9801B0228F6D9032002B0BDE8F08132
:1047F0000025F8E6654AD2F8903043F00103C2F88C
:104800009030FEF70DF9614F064641F2883804E01A
:10481000FEF706F9801B4045E6D8D7F890309B0795
:10482000F6D50CE7D5F8983023F00103C5F8983099
:10483000FEF7F6F8064604E0FEF7F2F8801B0228C1
:10484000D2D8D5F898309F07F6D41AE7336843F4E6
:1048500080733360FEF7E4F807463368DA053FF506
:10486000C7AEFEF7DDF8C01B0228F6D9BCE703F19E
:104870008043A3F53C331A6842F480221A601A6818
:1048800042F480321A6085E701207047FEF7C8F8CD
:10489000064604E0FEF7C4F8801B0228A4D82B6863
:1048A0009901F7D4E9683A4B226A606A374E0B40A7
:1048B0001343D4E90A1243EA012343EAC263D4E969
:1048C0000C120138490843EA00130139520843EA3F
:1048D0004153013A43EA4263EB602B6843F0807333
:1048E0002B60EB6843F08073EB60FEF799F80446A9
:1048F00005E0FEF795F8001B02283FF675AF336818
:104900009A01F6D5DEE6214BD3F8902042F004025E
:10491000C3F89020D3F8902042F00102C3F8902011
:104920006FE7012B3FF444AFEB68226A03F0030109
:1049300091427FF43DAF616A03F0F0020139B2EBBE
:10494000011F7FF435AFA16A03F4FE42B2EB012FE1
:104950007FF42EAFE16A03F07842B2EBC16F7FF4CF
:1049600027AF226B520803F4C001013AB1EB425F5A
:104970007FF41EAF626B520803F0C063013AB3EBE1
:10498000426F14BF012000209DE600BF00100240CE
:104990000C809F01184B9A6802F00C02042A26D062
:1049A0009A6802F00C02082A23D09A6802F00C02DE
:1049B0000C2A01D000207047D968DA68D86801F065
:1049C00003010329C2F30312C0F306200CBF0B4BF3
:1049D0000B4B0132B3FBF2F303FB00F0064BDB6839
:1049E000C3F3416301335B00B0FBF3F0704704484D
:1049F00070470248704700BF00100240001BB7001C
:104A00000024F400002800F0EE80784A2DE9F843F5
:104A1000136803F00F038B420D4604460CD2136853
:104A200023F00F030B431360136803F00F038B4253
:104A300002D00120BDE8F8832368DF0769D56768E5
:104A4000032F00F0A0806A4B022F1B6800F09780B4
:104A50005B05EED5FFF79EFF664B984240F2C080A3
:104A6000634A936823F0F00343F0800393604FF0B0
:104A700080095F4EB36823F003033B43B360FDF747
:104A8000CFFF41F28838074604E0FDF7C9FFC01B9D
:104A9000404571D8B368626803F00C03B3EB820F32
:104AA000F3D123689F0736D4B9F1000F03D0B36860
:104AB00023F0F003B3604D4E336803F00F03AB42B5
:104AC00046D823685A0706D54949E0688A6822F41F
:104AD000E06202438A601B0707D5454A2169936853
:104AE00023F4605343EAC1039360FFF753FF404A46
:104AF000414C92684149C2F303120346A25C40480C
:104B000002F01F02D3400B600068BDE8F843FDF7D8
:104B100045BF9E07CFD5580704D535498A6842F46A
:104B2000E0628A60190706D5314A936823F47C5302
:104B300043F4E06393602E4AA16893682B4E23F000
:104B4000F0030B439360336803F00F03AB42B8D913
:104B5000336823F00F032B433360FDF761FF41F20D
:104B600088380746336803F00F03AB42A9D0FDF73E
:104B700057FFC01B4045F5D90320BDE8F8839A03D1
:104B80003FF568AF55E71A4A116888017FF551AFC4
:104B9000D068D168D268174E00F003000328C1F333
:104BA00003110CBF174818480131B0FBF1F1104850
:104BB000C2F3062201FB02F2C168C1F34161013177
:104BC0004900B2FBF1F2B2420AD9826812F0F00F4A
:104BD0003FF446AF990703D5A368002B3FF440AFDD
:104BE0004FF0000945E70120704700BF0020024058
:104BF0000010024000B4C404A09700080000002088
:104C00008C080020001BB7000024F400054B064A66
:104C10009B680649C3F302230868D35C03F01F03B3
:104C2000D84070470010024098970008000000200C
:104C3000054B064A9B680649C3F3C2230868D35C48
:104C400003F01F03D84070470010024098970008F7
:104C5000000000202DE9F0410368044613F4002011
:104C600082B052D0AC4B9A6DD50040F13A8100270A
:104C7000AA4D2B6843F480732B60FDF7D1FE0646E6
:104C800005E0FDF7CDFE831B022B00F235812B687A
:104C9000D805F6D5A04D226DD5F8903013F44073A9
:104CA00026D0934224D0D5F89010D5F8903043F414
:104CB0008033C5F89030D5F8903023F48033C5F8B0
:104CC000903021F44073C907C5F8903010D5FDF736
:104CD000A7FE41F28838064605E0FDF7A1FE801BDD
:104CE000404500F20981D5F890309B07F5D5226D3B
:104CF0008949D1F8903023F440731343C1F89030C0
:104D000023680020002F40F0FC80DD0708D5824991
:104D10006568D1F8882022F003022A43C1F8882070
:104D2000990708D57C49A568D1F8882022F00C02A3
:104D30002A43C1F888205A0708D57749E568D1F891
:104D4000882022F030022A43C1F888201F0708D5A6
:104D500071492569D1F8882022F0C0022A43C1F8A0
:104D60008820DE0608D56C496569D1F8882022F4D0
:104D700040722A43C1F888209D0608D56649A56976
:104D8000D1F8882022F440622A43C1F888205906CD
:104D900008D56149E569D1F8882022F440522A43B8
:104DA000C1F888201A0608D55B49256AD1F8882001
:104DB00022F440422A43C1F88820DF0508D556492D
:104DC000656AD1F8882022F440322A43C1F888204D
:104DD0009E0308D55049A56AD1F89C2022F0030211
:104DE0002A43C1F89C209D0508D54B49E56AD1F8B6
:104DF000882022F440222A43C1F8882059050BD587
:104E00004549256BD1F8882022F440122A43B5F594
:104E1000801FC1F888207AD01A050BD53E49656BF2
:104E2000D1F8882022F440022A43B5F5800FC1F85A
:104E3000882075D0DF040BD53749A56BD1F88820C1
:104E400022F040722A43B5F1807FC1F888206CD0EF
:104E50009E040BD53049E56BD1F8882022F04062E2
:104E60002A43B5F1006FC1F8882063D05D040BD5EB
:104E70002949256CD1F8882022F040622A43B5F1F7
:104E8000006FC1F888205AD019040BD52249656CEF
:104E9000D1F8882022F040522A43B5F1805FC1F852
:104EA000882051D0DA030BD51B49A56CD1F8882096
:104EB00022F040422A43B5F1804FC1F8882048D003
:104EC0005B030BD5144AE16CD2F89C3023F44013F9
:104ED0000B43B1F5001FC2F89C303FD002B0BDE8D3
:104EE000F0819A6D42F080529A659B6D03F0805379
:104EF0000193019B0127BBE623680320002F3FF4A9
:104F000004AF05498A6D22F080528A65FDE6CA68C1
:104F100042F48012CA607FE7001002400070004037
:104F2000CA6842F48012CA6084E7CA6842F48012F8
:104F3000CA608DE7CA6842F48012CA6096E7CA6800
:104F400042F48012CA609FE7CA6842F48032CA60A5
:104F5000A8E7CA6842F48032CA60B1E7D36843F474
:104F60008013D36002B0BDE8F08100BF036A026A1B
:104F700022F00102026270B4446882690D6822F472
:104F8000803222F073022A438D6823F002032B4300
:104F9000154DA84213D005F50065A8420FD005F5C0
:104FA0004065A8420BD005F58065A84207D005F5FD
:104FB0008065A84203D005F50065A8420DD1CD68F3
:104FC00023F008032B43D1E9056524F4407446EA35
:104FD000050C23F004034CEA040449684460826130
:104FE00070BC416303627047002C0140036A026A8F
:104FF00022F48072026270B44468C2690D6822F4BF
:10500000803222F073022A438D6823F4007343EA4E
:105010000523164DA84213D005F50065A8420FD010
:1050200005F5E055A8420BD0A5F58055A8420ED055
:105030000F4DA8420BD005F58065A8420FD106E0C0
:10504000CD6823F4006343EA052323F48063D1E9A8
:10505000056524F4405446EA050C44EA0C144968FA
:105060004460C26170BCC16303627047002C0140A0
:1050700000440140036A026A22F48052026270B462
:105080004468C2690D6822F0807222F4E64242EA66
:1050900005228D6823F4005343EA0533164DA842D8
:1050A00013D005F50065A8420FD005F5E055A842DC
:1050B0000BD0A5F58055A8420ED0104DA8420BD0BC
:1050C00005F58065A8420FD106E0CD6823F40043C2
:1050D00043EA053323F48043D1E9056524F44044D1
:1050E00046EA050C44EA8C1449684460C26170BC0D
:1050F00001640362704700BF002C0140004401407E
:1051000090F83D30012B32D103681A49022280F811
:105110003D20DA688B4242F00102DA6019D0B3F127
:10512000804F16D0144A934213D002F58062934206
:105130000FD002F5806293420BD002F59432934275
:1051400007D002F54062934203D002F580529342A9
:1051500007D19968094A0A40062A06D0B2F5803F6D
:1051600003D01A6842F001021A6000207047012043
:10517000704700BF002C0140000400400700010000
:10518000002800F0998038B590F83D30044603F0CF
:10519000FF02002B7DD023684849022284F83D207D
:1051A0008B421A6861D0B3F1804F29D0A1F59431B8
:1051B0008B4225D001F580618B4221D001F58061C1
:1051C0008B421DD001F594318B424ED001F5E05158
:1051D0008B424AD0A1F580518B425FD001F58061AE
:1051E0008B425BD001F580618B4257D0A569616825
:1051F000E06822F080022A431A60D862996210E0C7
:10520000A168206922F070020A4322F44072A16969
:10521000024322F08002E0680A4361681A60D862A3
:10522000996201225A611A69D20703D51A6922F0DC
:1052300001021A61012384F8483084F83E3084F872
:105240003F3084F8403084F8413084F8423084F8AC
:10525000433084F8443084F8453084F8463084F88C
:10526000473084F83D30002038BDA068216922F025
:105270007002024322F440720A43A16922F08002C4
:105280000A431A60E268DA6262689A6262691A63C3
:10529000C7E780F83C20FCF7B3FA7CE72069A169F6
:1052A00022F44072024322F08002E0680A436168FF
:1052B0001A60D8629962E9E701207047002C01402A
:1052C000704700BF704700BF704700BF704700BF06
:1052D000704700BFF8B50368DE681C69A107054682
:1052E00001D5B2076ED4600701D5710757D42207E4
:1052F00001D5330740D4E10601D5F20628D4E307EF
:1053000001D5F7077CD414F4025F04F4807769D0E8
:1053100030067DD4620602D5730600F18B80A706A5
:1053200002D5B00600F18E80E10202D5F20200F152
:105330009180A30202D5B70200F19480600202D5E9
:10534000710200F19780220201D533024FD4F8BDDB
:105350002B686FF010021A6108222A77DB6913F4B8
:10536000407F284640F09780FFF7ACFF2846FFF7C4
:10537000ADFF00232B77C2E72B686FF008021A619C
:1053800004222A77DB699F07284640F08180FFF7D7
:1053900099FF2846FFF79AFF00232B77ABE72B688E
:1053A0006FF004021A6102222A779B6913F4407F8E
:1053B00028466AD1FFF786FF2846FFF787FF0023BC
:1053C0002B7794E76FF002021A61012202779B6942
:1053D0009F0757D1FFF776FF2846FFF777FF002397
:1053E0002B7780E7002F95D031061BD492E72B68EE
:1053F0006FF400021A612846BDE8F84000F03ABA9E
:105400002B686FF001021A612846FFF759FF7AE70F
:105410002B686FF402521A61284600F021FA002F1F
:105420003FF478AF2B686FF480721A61284600F061
:1054300019FA6FE72B686FF040021A612846FFF7F0
:1054400047FF6CE72B686FF020021A61284600F0D6
:1054500005FA69E72B686FF480121A61284600F09C
:1054600003FA66E72B686FF400121A61284600F011
:10547000FDF963E72B686FF480021A61284600F09B
:10548000F7F960E7FFF720FFA9E7FFF71DFF96E7B1
:10549000FFF71AFF80E7FFF717FF6AE7036A026A60
:1054A00022F01002026270B4446882690D6822F032
:1054B000807222F4E64242EA05228D6823F020033E
:1054C00043EA0513164DA84213D005F50065A8421E
:1054D0000FD005F5E055A8420BD0A5F58055A842A0
:1054E0000ED0104DA8420BD005F58065A8420FD113
:1054F00006E0CD6823F0800343EA051323F0400360
:10550000D1E9056524F4406446EA050C44EA8C04BC
:1055100049684460826170BC81630362704700BF68
:10552000002C01400044014090F83C30012B00F079
:10553000E480012370B504460D4680F83C30142AFF
:105540000CD8DFE802F0530B0B0B670B0B0B780B3F
:105550000B0B880B0B0B990B0B0B1000002384F823
:105560003C30012070BD03682E681A6A196A21F464
:10557000801119625868196D21F0807121F4E041A1
:1055800041EA0621AE6822F4001242EA06525C4E5D
:10559000B34213D006F50066B3420FD006F540665D
:1055A000B3420BD006F58066B34207D006F580669D
:1055B000B34203D006F50066B34204D16E6920F40D
:1055C000802040EA8620586019656968D9641A62AB
:1055D0001A6D296942F400621A651A6D22F480621C
:1055E0001A651A6D42EA01221A650EE00068FFF79B
:1055F000BDFC83692A6943F008038361836923F052
:1056000004038361836913438361002384F83C307E
:10561000002070BD0068FFF741FF83692A6943F4E9
:1056200000638361836923F480638361836943EA50
:1056300002238361E9E70068FFF7D8FCC3692A69A0
:1056400043F00803C361C36923F00403C361C36962
:105650001343C361D9E70068FFF70CFDC3692A69EA
:1056600043F40063C361C36923F48063C361C36906
:1056700043EA0223C361C8E703682E681A6A196AFD
:1056800021F4803119625868196D21F4803121F0BC
:1056900070013143AE6822F4003242EA0642184EED
:1056A000B34213D006F50066B3420FD006F540664C
:1056B000B3420BD006F58066B34207D006F580668C
:1056C000B34203D006F50066B34204D16E6920F4FC
:1056D000803040EA062058601965696899641A624A
:1056E0001A6D296942F008021A651A6D22F0040247
:1056F0001A651A6D0A431A6587E70220704700BFD2
:10570000002C014090F83C30012B4ED030B40268A0
:10571000274D022380F83D30AA4253680C68844626
:1057200090682CD005F50065AA4233D005F5E05508
:10573000AA4224D023F0007323F070032343B2F174
:10574000804F53600ED01B4B9A420BD003F5806301
:105750009A4207D003F580639A4203D003F59A3347
:105760009A4204D18B6820F080001843906000209A
:1057700001238CF83D308CF83C0030BC70474D68FC
:1057800023F470032B4323F0007323F070032343AF
:105790005360E7E74D6823F470032B4323F0007355
:1057A00023F070031C435460DCE70220704700BF05
:1057B000002C01400004004090F83C30012B48D000
:1057C00010B4D1E9024323F44073024623434868EE
:1057D0000C6823F48063034323F4006308692343C4
:1057E00023F480534C69034323F40053086B234391
:1057F00023F480438C69034323F47023C86943EA8C
:10580000044323F08053144C03431068A04207D094
:1058100004F50064A04203D004F5E054A04210D186
:105820008C6A23F4700343EA04530C6A23F08073F8
:1058300023434C6AC96A23F00073234323F00053C7
:105840000B430021436482F83C1008465DF8044B8A
:1058500070470220704700BF002C0140704700BF16
:10586000704700BF704700BF704700BF704700BF60
:10587000704700BF704700BF70B5D0F88860202E19
:1058800024D1044601B31346F2B1A0F856200022F9
:105890000165C0F89020A0F85430C06F2125C4F8ED
:1058A00088502568A8B1826305F12802114DC562B0
:1058B000114D0563114D4563FDF76CFF40B1102399
:1058C000C4F89030C4F88860012070BD022070BD1B
:1058D000256840232B6205F1080353E8003F43F09D
:1058E000800305F1080141E80032002AF3D10020CD
:1058F00070BD00BF055900084D59000865590008E2
:10590000704700BF08B50368806A1B6813F0200366
:1059100017D10268A0F8563002F1080353E8003F9F
:1059200023F0800302F1080040E800310029F3D1A0
:1059300052E8003F43F0400342E800310029F7D12C
:1059400008BDFFF7DDFF08BD704700BF08B5806ADE
:10595000FFF7FAFF08BD00BF704700BF704700BFE8
:10596000704700BF806A0368D0F8881010B5D0F87F
:105970008C409A68120601D521290DD09A685206EA
:1059800001D5222C23D0D0F8903043F01003C0F87A
:105990009030FFF7E5FF10BD0022A0F8562053E835
:1059A000002F22F0C00243E800210029F7D103F1C3
:1059B000080252E8002F22F4000203F1080C4CE820
:1059C00000210029F3D12022C0F88820D6E7002248
:1059D000A0F85E2053E8002F22F4907243E80021E3
:1059E0000029F7D1134C03F1080252E8002F22409E
:1059F00003F1080C4CE800210029F4D1C26E012A01
:105A000006D000232022C0F88C204367C366BAE783
:105A100053E8002F22F0100243E800210029F0D0C3
:105A200053E8002F22F0100243E800210029EFD1B3
:105A3000E7E700BFFEFFFFEF08B5806A0023A0F88C
:105A40005E30FFF78DFF08BD0368DA69196840F61C
:105A50000F0C12EA0C0F70B59D68044645D19606EE
:105A600007D501F0200C05F0805E5CEA0E0C40F0DA
:105A70000681E06E012800F0D380D6021DD4160600
:105A800006D505F4000501F08000284340F0FE80B3
:105A900050061CD54E061AD553E8002F22F04002BE
:105AA00043E800210029F7D120220023C4F88820F0
:105AB000A3672046FFF724FF70BD6802DFD54FF4CF
:105AC000801220461A62BDE8704000F04DBD1502FC
:105AD00002D5480000F1FF80D301EDD50029EBDAB3
